{
  "contractName": "BDAToken",
  "abi": [
    {
      "inputs": [
        {
          "internalType": "string",
          "name": "name",
          "type": "string"
        },
        {
          "internalType": "string",
          "name": "symbol",
          "type": "string"
        },
        {
          "internalType": "uint256",
          "name": "tmax",
          "type": "uint256"
        },
        {
          "internalType": "uint256",
          "name": "_cap",
          "type": "uint256"
        },
        {
          "internalType": "uint256",
          "name": "_transferLimit",
          "type": "uint256"
        }
      ],
      "stateMutability": "nonpayable",
      "type": "constructor"
    },
    {
      "inputs": [
        {
          "internalType": "uint256",
          "name": "increasedSupply",
          "type": "uint256"
        },
        {
          "internalType": "uint256",
          "name": "cap",
          "type": "uint256"
        }
      ],
      "name": "ERC20ExceededCap",
      "type": "error"
    },
    {
      "inputs": [
        {
          "internalType": "address",
          "name": "spender",
          "type": "address"
        },
        {
          "internalType": "uint256",
          "name": "allowance",
          "type": "uint256"
        },
        {
          "internalType": "uint256",
          "name": "needed",
          "type": "uint256"
        }
      ],
      "name": "ERC20InsufficientAllowance",
      "type": "error"
    },
    {
      "inputs": [
        {
          "internalType": "address",
          "name": "sender",
          "type": "address"
        },
        {
          "internalType": "uint256",
          "name": "balance",
          "type": "uint256"
        },
        {
          "internalType": "uint256",
          "name": "needed",
          "type": "uint256"
        }
      ],
      "name": "ERC20InsufficientBalance",
      "type": "error"
    },
    {
      "inputs": [
        {
          "internalType": "address",
          "name": "approver",
          "type": "address"
        }
      ],
      "name": "ERC20InvalidApprover",
      "type": "error"
    },
    {
      "inputs": [
        {
          "internalType": "uint256",
          "name": "cap",
          "type": "uint256"
        }
      ],
      "name": "ERC20InvalidCap",
      "type": "error"
    },
    {
      "inputs": [
        {
          "internalType": "address",
          "name": "receiver",
          "type": "address"
        }
      ],
      "name": "ERC20InvalidReceiver",
      "type": "error"
    },
    {
      "inputs": [
        {
          "internalType": "address",
          "name": "sender",
          "type": "address"
        }
      ],
      "name": "ERC20InvalidSender",
      "type": "error"
    },
    {
      "inputs": [
        {
          "internalType": "address",
          "name": "spender",
          "type": "address"
        }
      ],
      "name": "ERC20InvalidSpender",
      "type": "error"
    },
    {
      "anonymous": false,
      "inputs": [
        {
          "indexed": true,
          "internalType": "address",
          "name": "owner",
          "type": "address"
        },
        {
          "indexed": true,
          "internalType": "address",
          "name": "spender",
          "type": "address"
        },
        {
          "indexed": false,
          "internalType": "uint256",
          "name": "value",
          "type": "uint256"
        }
      ],
      "name": "Approval",
      "type": "event"
    },
    {
      "anonymous": false,
      "inputs": [
        {
          "indexed": true,
          "internalType": "address",
          "name": "to",
          "type": "address"
        },
        {
          "indexed": false,
          "internalType": "uint256",
          "name": "amount",
          "type": "uint256"
        }
      ],
      "name": "Mint",
      "type": "event"
    },
    {
      "anonymous": false,
      "inputs": [
        {
          "indexed": true,
          "internalType": "address",
          "name": "account",
          "type": "address"
        },
        {
          "indexed": true,
          "internalType": "address",
          "name": "signer",
          "type": "address"
        }
      ],
      "name": "SignAddingAdminMint",
      "type": "event"
    },
    {
      "anonymous": false,
      "inputs": [
        {
          "indexed": true,
          "internalType": "address",
          "name": "account",
          "type": "address"
        },
        {
          "indexed": true,
          "internalType": "address",
          "name": "signer",
          "type": "address"
        }
      ],
      "name": "SignRemovingAdminMint",
      "type": "event"
    },
    {
      "anonymous": false,
      "inputs": [
        {
          "indexed": true,
          "internalType": "address",
          "name": "from",
          "type": "address"
        },
        {
          "indexed": true,
          "internalType": "address",
          "name": "to",
          "type": "address"
        },
        {
          "indexed": false,
          "internalType": "uint256",
          "name": "value",
          "type": "uint256"
        }
      ],
      "name": "Transfer",
      "type": "event"
    },
    {
      "anonymous": false,
      "inputs": [
        {
          "indexed": true,
          "internalType": "address",
          "name": "from",
          "type": "address"
        },
        {
          "indexed": true,
          "internalType": "address",
          "name": "to",
          "type": "address"
        },
        {
          "indexed": false,
          "internalType": "uint256",
          "name": "amount",
          "type": "uint256"
        },
        {
          "indexed": false,
          "internalType": "uint256",
          "name": "limit",
          "type": "uint256"
        }
      ],
      "name": "TransferBDAToken",
      "type": "event"
    },
    {
      "inputs": [],
      "name": "adminMint",
      "outputs": [
        {
          "internalType": "contract AdminMint",
          "name": "",
          "type": "address"
        }
      ],
      "stateMutability": "view",
      "type": "function",
      "constant": true
    },
    {
      "inputs": [],
      "name": "adminRestriction",
      "outputs": [
        {
          "internalType": "contract AdminRestriction",
          "name": "",
          "type": "address"
        }
      ],
      "stateMutability": "view",
      "type": "function",
      "constant": true
    },
    {
      "inputs": [
        {
          "internalType": "address",
          "name": "owner",
          "type": "address"
        },
        {
          "internalType": "address",
          "name": "spender",
          "type": "address"
        }
      ],
      "name": "allowance",
      "outputs": [
        {
          "internalType": "uint256",
          "name": "",
          "type": "uint256"
        }
      ],
      "stateMutability": "view",
      "type": "function",
      "constant": true
    },
    {
      "inputs": [
        {
          "internalType": "address",
          "name": "spender",
          "type": "address"
        },
        {
          "internalType": "uint256",
          "name": "value",
          "type": "uint256"
        }
      ],
      "name": "approve",
      "outputs": [
        {
          "internalType": "bool",
          "name": "",
          "type": "bool"
        }
      ],
      "stateMutability": "nonpayable",
      "type": "function"
    },
    {
      "inputs": [
        {
          "internalType": "address",
          "name": "account",
          "type": "address"
        }
      ],
      "name": "balanceOf",
      "outputs": [
        {
          "internalType": "uint256",
          "name": "",
          "type": "uint256"
        }
      ],
      "stateMutability": "view",
      "type": "function",
      "constant": true
    },
    {
      "inputs": [],
      "name": "cap",
      "outputs": [
        {
          "internalType": "uint256",
          "name": "",
          "type": "uint256"
        }
      ],
      "stateMutability": "view",
      "type": "function",
      "constant": true
    },
    {
      "inputs": [],
      "name": "decimals",
      "outputs": [
        {
          "internalType": "uint8",
          "name": "",
          "type": "uint8"
        }
      ],
      "stateMutability": "view",
      "type": "function",
      "constant": true
    },
    {
      "inputs": [],
      "name": "name",
      "outputs": [
        {
          "internalType": "string",
          "name": "",
          "type": "string"
        }
      ],
      "stateMutability": "view",
      "type": "function",
      "constant": true
    },
    {
      "inputs": [],
      "name": "symbol",
      "outputs": [
        {
          "internalType": "string",
          "name": "",
          "type": "string"
        }
      ],
      "stateMutability": "view",
      "type": "function",
      "constant": true
    },
    {
      "inputs": [],
      "name": "totalSupply",
      "outputs": [
        {
          "internalType": "uint256",
          "name": "",
          "type": "uint256"
        }
      ],
      "stateMutability": "view",
      "type": "function",
      "constant": true
    },
    {
      "inputs": [
        {
          "internalType": "address",
          "name": "from",
          "type": "address"
        },
        {
          "internalType": "address",
          "name": "to",
          "type": "address"
        },
        {
          "internalType": "uint256",
          "name": "value",
          "type": "uint256"
        }
      ],
      "name": "transferFrom",
      "outputs": [
        {
          "internalType": "bool",
          "name": "",
          "type": "bool"
        }
      ],
      "stateMutability": "nonpayable",
      "type": "function"
    },
    {
      "inputs": [],
      "name": "getAdminMint",
      "outputs": [
        {
          "internalType": "address[]",
          "name": "",
          "type": "address[]"
        }
      ],
      "stateMutability": "view",
      "type": "function",
      "constant": true
    },
    {
      "inputs": [],
      "name": "getAdminRestriction",
      "outputs": [
        {
          "internalType": "address[]",
          "name": "",
          "type": "address[]"
        }
      ],
      "stateMutability": "view",
      "type": "function",
      "constant": true
    },
    {
      "inputs": [
        {
          "internalType": "address",
          "name": "account",
          "type": "address"
        }
      ],
      "name": "getTransferLimit",
      "outputs": [
        {
          "internalType": "uint256",
          "name": "",
          "type": "uint256"
        }
      ],
      "stateMutability": "view",
      "type": "function",
      "constant": true
    },
    {
      "inputs": [
        {
          "internalType": "address[]",
          "name": "to",
          "type": "address[]"
        },
        {
          "internalType": "uint256[]",
          "name": "amount",
          "type": "uint256[]"
        }
      ],
      "name": "mint",
      "outputs": [],
      "stateMutability": "nonpayable",
      "type": "function"
    },
    {
      "inputs": [],
      "name": "burnAccount",
      "outputs": [],
      "stateMutability": "nonpayable",
      "type": "function"
    },
    {
      "inputs": [
        {
          "internalType": "address",
          "name": "to",
          "type": "address"
        },
        {
          "internalType": "uint256",
          "name": "amount",
          "type": "uint256"
        }
      ],
      "name": "transfer",
      "outputs": [
        {
          "internalType": "bool",
          "name": "",
          "type": "bool"
        }
      ],
      "stateMutability": "nonpayable",
      "type": "function"
    },
    {
      "inputs": [
        {
          "internalType": "address[]",
          "name": "accounts",
          "type": "address[]"
        },
        {
          "internalType": "uint256[]",
          "name": "amounts",
          "type": "uint256[]"
        }
      ],
      "name": "signMint",
      "outputs": [],
      "stateMutability": "nonpayable",
      "type": "function"
    },
    {
      "inputs": [
        {
          "internalType": "address",
          "name": "account",
          "type": "address"
        }
      ],
      "name": "signAddAdminMint",
      "outputs": [],
      "stateMutability": "nonpayable",
      "type": "function"
    },
    {
      "inputs": [
        {
          "internalType": "address",
          "name": "account",
          "type": "address"
        }
      ],
      "name": "signRemoveAdminMint",
      "outputs": [],
      "stateMutability": "nonpayable",
      "type": "function"
    },
    {
      "inputs": [
        {
          "internalType": "address",
          "name": "account",
          "type": "address"
        }
      ],
      "name": "signAddAdminRestriction",
      "outputs": [],
      "stateMutability": "nonpayable",
      "type": "function"
    },
    {
      "inputs": [
        {
          "internalType": "address",
          "name": "account",
          "type": "address"
        }
      ],
      "name": "signRemoveAdminRestriction",
      "outputs": [],
      "stateMutability": "nonpayable",
      "type": "function"
    },
    {
      "inputs": [
        {
          "internalType": "address",
          "name": "account",
          "type": "address"
        },
        {
          "internalType": "uint256",
          "name": "_newLimit",
          "type": "uint256"
        }
      ],
      "name": "signUpdateTransferLimit",
      "outputs": [],
      "stateMutability": "nonpayable",
      "type": "function"
    },
    {
      "inputs": [],
      "name": "getUserRoles",
      "outputs": [
        {
          "internalType": "bool",
          "name": "isAdminMint",
          "type": "bool"
        },
        {
          "internalType": "bool",
          "name": "isAdminRestriction",
          "type": "bool"
        }
      ],
      "stateMutability": "view",
      "type": "function",
      "constant": true
    }
  ],
  "bytecode": "0x60a060405234801562000010575f80fd5b506040516200622538038062006225833981810160405281019062000036919062000381565b81858581600390816200004a919062000671565b5080600490816200005c919062000671565b5050505f8103620000a6575f6040517f392e1e270000000000000000000000000000000000000000000000000000000081526004016200009d919062000796565b60405180910390fd5b8060808181525050503383604051620000bf90620001a8565b620000cc92919062000805565b604051809103905ff080158015620000e6573d5f803e3d5ffd5b5060055f6101000a81548173ffffffffffffffffffffffffffffffffffffffff021916908373ffffffffffffffffffffffffffffffffffffffff16021790555033816040516200013690620001b6565b6200014392919062000805565b604051809103905ff0801580156200015d573d5f803e3d5ffd5b5060065f6101000a81548173ffffffffffffffffffffffffffffffffffffffff021916908373ffffffffffffffffffffffffffffffffffffffff160217905550505050505062000830565b6113248062003b4c83390190565b6113b58062004e7083390190565b5f604051905090565b5f80fd5b5f80fd5b5f80fd5b5f80fd5b5f601f19601f8301169050919050565b7f4e487b71000000000000000000000000000000000000000000000000000000005f52604160045260245ffd5b6200022582620001dd565b810181811067ffffffffffffffff82111715620002475762000246620001ed565b5b80604052505050565b5f6200025b620001c4565b90506200026982826200021a565b919050565b5f67ffffffffffffffff8211156200028b576200028a620001ed565b5b6200029682620001dd565b9050602081019050919050565b5f5b83811015620002c2578082015181840152602081019050620002a5565b5f8484015250505050565b5f620002e3620002dd846200026e565b62000250565b905082815260208101848484011115620003025762000301620001d9565b5b6200030f848285620002a3565b509392505050565b5f82601f8301126200032e576200032d620001d5565b5b815162000340848260208601620002cd565b91505092915050565b5f819050919050565b6200035d8162000349565b811462000368575f80fd5b50565b5f815190506200037b8162000352565b92915050565b5f805f805f60a086880312156200039d576200039c620001cd565b5b5f86015167ffffffffffffffff811115620003bd57620003bc620001d1565b5b620003cb8882890162000317565b955050602086015167ffffffffffffffff811115620003ef57620003ee620001d1565b5b620003fd8882890162000317565b945050604062000410888289016200036b565b935050606062000423888289016200036b565b925050608062000436888289016200036b565b9150509295509295909350565b5f81519050919050565b7f4e487b71000000000000000000000000000000000000000000000000000000005f52602260045260245ffd5b5f60028204905060018216806200049257607f821691505b602082108103620004a857620004a76200044d565b5b50919050565b5f819050815f5260205f209050919050565b5f6020601f8301049050919050565b5f82821b905092915050565b5f600883026200050c7fffffffffffffffffffffffffffffffffffffffffffffffffffffffffffffffff82620004cf565b620005188683620004cf565b95508019841693508086168417925050509392505050565b5f819050919050565b5f62000559620005536200054d8462000349565b62000530565b62000349565b9050919050565b5f819050919050565b620005748362000539565b6200058c620005838262000560565b848454620004db565b825550505050565b5f90565b620005a262000594565b620005af81848462000569565b505050565b5b81811015620005d657620005ca5f8262000598565b600181019050620005b5565b5050565b601f8211156200062557620005ef81620004ae565b620005fa84620004c0565b810160208510156200060a578190505b620006226200061985620004c0565b830182620005b4565b50505b505050565b5f82821c905092915050565b5f620006475f19846008026200062a565b1980831691505092915050565b5f62000661838362000636565b9150826002028217905092915050565b6200067c8262000443565b67ffffffffffffffff811115620006985762000697620001ed565b5b620006a482546200047a565b620006b1828285620005da565b5f60209050601f831160018114620006e7575f8415620006d2578287015190505b620006de858262000654565b8655506200074d565b601f198416620006f786620004ae565b5f5b828110156200072057848901518255600182019150602085019450602081019050620006f9565b868310156200074057848901516200073c601f89168262000636565b8355505b6001600288020188555050505b505050505050565b5f819050919050565b5f6200077e62000778620007728462000755565b62000530565b62000349565b9050919050565b62000790816200075e565b82525050565b5f602082019050620007ab5f83018462000785565b92915050565b5f73ffffffffffffffffffffffffffffffffffffffff82169050919050565b5f620007dc82620007b1565b9050919050565b620007ee81620007d0565b82525050565b620007ff8162000349565b82525050565b5f6040820190506200081a5f830185620007e3565b620008296020830184620007f4565b9392505050565b608051613303620008495f395f61062801526133035ff3fe608060405234801561000f575f80fd5b5060043610610156575f3560e01c80636ac0be52116100c157806396ac288c1161007a57806396ac288c146103a5578063a9059cbb146103c1578063c6ab6e2b146103f1578063dd62ed3e1461040d578063e467f7e01461043d578063e8d31f961461045957610156565b80636ac0be52146102e057806370a08231146102ff5780637f4d4f0d1461032f578063849b40511461034b578063895fc7881461036957806395d89b411461038757610156565b8063327b32b811610113578063327b32b814610232578063355274ea1461023c578063476c74cb1461025a5780634a4f3cce14610276578063595e4467146102945780635edf9e61146102b057610156565b806306fdde031461015a578063095ea7b31461017857806318160ddd146101a857806318eaaebb146101c657806323b872dd146101e4578063313ce56714610214575b5f80fd5b610162610475565b60405161016f9190612365565b60405180910390f35b610192600480360381019061018d9190612423565b610505565b60405161019f919061247b565b60405180910390f35b6101b0610527565b6040516101bd91906124a3565b60405180910390f35b6101ce610530565b6040516101db9190612573565b60405180910390f35b6101fe60048036038101906101f99190612593565b6105c8565b60405161020b919061247b565b60405180910390f35b61021c6105f6565b60405161022991906125fe565b60405180910390f35b61023a6105fe565b005b610244610625565b60405161025191906124a3565b60405180910390f35b610274600480360381019061026f9190612617565b61064c565b005b61027e6107dd565b60405161028b919061269d565b60405180910390f35b6102ae60048036038101906102a991906128b6565b610802565b005b6102ca60048036038101906102c59190612617565b610a0a565b6040516102d791906124a3565b60405180910390f35b6102e8610aab565b6040516102f692919061292c565b60405180910390f35b61031960048036038101906103149190612617565b610bec565b60405161032691906124a3565b60405180910390f35b61034960048036038101906103449190612617565b610c31565b005b610353610e1c565b6040516103609190612573565b60405180910390f35b610371610eb4565b60405161037e9190612973565b60405180910390f35b61038f610ed9565b60405161039c9190612365565b60405180910390f35b6103bf60048036038101906103ba9190612423565b610f69565b005b6103db60048036038101906103d69190612423565b6110ff565b6040516103e8919061247b565b60405180910390f35b61040b60048036038101906104069190612617565b611310565b005b6104276004803603810190610422919061298c565b6114a1565b60405161043491906124a3565b60405180910390f35b610457600480360381019061045291906128b6565b611523565b005b610473600480360381019061046e9190612617565b6119cc565b005b606060038054610484906129f7565b80601f01602080910402602001604051908101604052809291908181526020018280546104b0906129f7565b80156104fb5780601f106104d2576101008083540402835291602001916104fb565b820191905f5260205f20905b8154815290600101906020018083116104de57829003601f168201915b5050505050905090565b5f8061050f611bb7565b905061051c818585611bbe565b600191505092915050565b5f600254905090565b606060055f9054906101000a900473ffffffffffffffffffffffffffffffffffffffff1673ffffffffffffffffffffffffffffffffffffffff166331ae450b6040518163ffffffff1660e01b81526004015f60405180830381865afa15801561059b573d5f803e3d5ffd5b505050506040513d5f823e3d601f19601f820116820180604052508101906105c39190612ad0565b905090565b5f806105d2611bb7565b90506105df858285611bd0565b6105ea858585611c62565b60019150509392505050565b5f6012905090565b5f61060833610bec565b90505f81036106175750610623565b6106213382611d52565b505b565b5f7f0000000000000000000000000000000000000000000000000000000000000000905090565b60065f9054906101000a900473ffffffffffffffffffffffffffffffffffffffff1673ffffffffffffffffffffffffffffffffffffffff166324d7806c336040518263ffffffff1660e01b81526004016106a69190612b26565b602060405180830381865afa1580156106c1573d5f803e3d5ffd5b505050506040513d601f19601f820116820180604052508101906106e59190612b69565b610724576040517f08c379a000000000000000000000000000000000000000000000000000000000815260040161071b90612c04565b60405180910390fd5b5f816040516020016107369190612c67565b60405160208183030381529060405280519060200120905060065f9054906101000a900473ffffffffffffffffffffffffffffffffffffffff1673ffffffffffffffffffffffffffffffffffffffff1663956e8fac8284336040518463ffffffff1660e01b81526004016107ac93929190612c99565b5f604051808303815f87803b1580156107c3575f80fd5b505af11580156107d5573d5f803e3d5ffd5b505050505050565b60065f9054906101000a900473ffffffffffffffffffffffffffffffffffffffff1681565b60055f9054906101000a900473ffffffffffffffffffffffffffffffffffffffff1673ffffffffffffffffffffffffffffffffffffffff166324d7806c336040518263ffffffff1660e01b815260040161085c9190612b26565b602060405180830381865afa158015610877573d5f803e3d5ffd5b505050506040513d601f19601f8201168201806040525081019061089b9190612b69565b6108da576040517f08c379a00000000000000000000000000000000000000000000000000000000081526004016108d190612d18565b60405180910390fd5b5f82826040516020016108ee929190612e73565b60405160208183030381529060405280519060200120905060055f9054906101000a900473ffffffffffffffffffffffffffffffffffffffff1673ffffffffffffffffffffffffffffffffffffffff16636f5fbcbf82336040518363ffffffff1660e01b8152600401610962929190612e96565b6020604051808303815f875af115801561097e573d5f803e3d5ffd5b505050506040513d601f19601f820116820180604052508101906109a29190612b69565b15610a05575f5b8351811015610a03576109f08482815181106109c8576109c7612ebd565b5b60200260200101518483815181106109e3576109e2612ebd565b5b6020026020010151611dd1565b80806109fb90612f17565b9150506109a9565b505b505050565b5f60065f9054906101000a900473ffffffffffffffffffffffffffffffffffffffff1673ffffffffffffffffffffffffffffffffffffffff16635edf9e61836040518263ffffffff1660e01b8152600401610a659190612b26565b602060405180830381865afa158015610a80573d5f803e3d5ffd5b505050506040513d601f19601f82011682018060405250810190610aa49190612f72565b9050919050565b5f805f33905060055f9054906101000a900473ffffffffffffffffffffffffffffffffffffffff1673ffffffffffffffffffffffffffffffffffffffff166324d7806c826040518263ffffffff1660e01b8152600401610b0b9190612b26565b602060405180830381865afa158015610b26573d5f803e3d5ffd5b505050506040513d601f19601f82011682018060405250810190610b4a9190612b69565b60065f9054906101000a900473ffffffffffffffffffffffffffffffffffffffff1673ffffffffffffffffffffffffffffffffffffffff166324d7806c836040518263ffffffff1660e01b8152600401610ba49190612b26565b602060405180830381865afa158015610bbf573d5f803e3d5ffd5b505050506040513d601f19601f82011682018060405250810190610be39190612b69565b92509250509091565b5f805f8373ffffffffffffffffffffffffffffffffffffffff1673ffffffffffffffffffffffffffffffffffffffff1681526020019081526020015f20549050919050565b60055f9054906101000a900473ffffffffffffffffffffffffffffffffffffffff1673ffffffffffffffffffffffffffffffffffffffff166324d7806c336040518263ffffffff1660e01b8152600401610c8b9190612b26565b602060405180830381865afa158015610ca6573d5f803e3d5ffd5b505050506040513d601f19601f82011682018060405250810190610cca9190612b69565b610d09576040517f08c379a0000000000000000000000000000000000000000000000000000000008152600401610d0090612d18565b60405180910390fd5b5f81604051602001610d1b9190612c67565b60405160208183030381529060405280519060200120905060055f9054906101000a900473ffffffffffffffffffffffffffffffffffffffff1673ffffffffffffffffffffffffffffffffffffffff1663956e8fac8284336040518463ffffffff1660e01b8152600401610d9193929190612c99565b5f604051808303815f87803b158015610da8575f80fd5b505af1158015610dba573d5f803e3d5ffd5b505050503373ffffffffffffffffffffffffffffffffffffffff168273ffffffffffffffffffffffffffffffffffffffff167f7830a60768a9294b36bc5c30db6fa2057db2fa35b90449078bccbcbadef54a6860405160405180910390a35050565b606060065f9054906101000a900473ffffffffffffffffffffffffffffffffffffffff1673ffffffffffffffffffffffffffffffffffffffff166331ae450b6040518163ffffffff1660e01b81526004015f60405180830381865afa158015610e87573d5f803e3d5ffd5b505050506040513d5f823e3d601f19601f82011682018060405250810190610eaf9190612ad0565b905090565b60055f9054906101000a900473ffffffffffffffffffffffffffffffffffffffff1681565b606060048054610ee8906129f7565b80601f0160208091040260200160405190810160405280929190818152602001828054610f14906129f7565b8015610f5f5780601f10610f3657610100808354040283529160200191610f5f565b820191905f5260205f20905b815481529060010190602001808311610f4257829003601f168201915b5050505050905090565b60065f9054906101000a900473ffffffffffffffffffffffffffffffffffffffff1673ffffffffffffffffffffffffffffffffffffffff166324d7806c336040518263ffffffff1660e01b8152600401610fc39190612b26565b602060405180830381865afa158015610fde573d5f803e3d5ffd5b505050506040513d601f19601f820116820180604052508101906110029190612b69565b611041576040517f08c379a000000000000000000000000000000000000000000000000000000000815260040161103890612c04565b60405180910390fd5b5f8282604051602001611055929190612fbd565b60405160208183030381529060405280519060200120905060065f9054906101000a900473ffffffffffffffffffffffffffffffffffffffff1673ffffffffffffffffffffffffffffffffffffffff1663537ca041828585336040518563ffffffff1660e01b81526004016110cd9493929190612fe8565b5f604051808303815f87803b1580156110e4575f80fd5b505af11580156110f6573d5f803e3d5ffd5b50505050505050565b5f8060065f9054906101000a900473ffffffffffffffffffffffffffffffffffffffff1673ffffffffffffffffffffffffffffffffffffffff16635edf9e61336040518263ffffffff1660e01b815260040161115b9190612b26565b602060405180830381865afa158015611176573d5f803e3d5ffd5b505050506040513d601f19601f8201168201806040525081019061119a9190612f72565b90508373ffffffffffffffffffffffffffffffffffffffff163373ffffffffffffffffffffffffffffffffffffffff167f1a35830374f9276cd7582fdb267d883a64cbaf31d0cbca68abd3b19529fce0db85846040516111fb92919061302b565b60405180910390a35f73ffffffffffffffffffffffffffffffffffffffff168473ffffffffffffffffffffffffffffffffffffffff1603611271576040517f08c379a0000000000000000000000000000000000000000000000000000000008152600401611268906130c2565b60405180910390fd5b60065f9054906101000a900473ffffffffffffffffffffffffffffffffffffffff1673ffffffffffffffffffffffffffffffffffffffff166354b4fdfd33856040518363ffffffff1660e01b81526004016112cd9291906130e0565b5f604051808303815f87803b1580156112e4575f80fd5b505af11580156112f6573d5f803e3d5ffd5b50505050611305338585611c62565b600191505092915050565b60065f9054906101000a900473ffffffffffffffffffffffffffffffffffffffff1673ffffffffffffffffffffffffffffffffffffffff166324d7806c336040518263ffffffff1660e01b815260040161136a9190612b26565b602060405180830381865afa158015611385573d5f803e3d5ffd5b505050506040513d601f19601f820116820180604052508101906113a99190612b69565b6113e8576040517f08c379a00000000000000000000000000000000000000000000000000000000081526004016113df90612c04565b60405180910390fd5b5f816040516020016113fa9190612c67565b60405160208183030381529060405280519060200120905060065f9054906101000a900473ffffffffffffffffffffffffffffffffffffffff1673ffffffffffffffffffffffffffffffffffffffff166324c2be0e8284336040518463ffffffff1660e01b815260040161147093929190612c99565b5f604051808303815f87803b158015611487575f80fd5b505af1158015611499573d5f803e3d5ffd5b505050505050565b5f60015f8473ffffffffffffffffffffffffffffffffffffffff1673ffffffffffffffffffffffffffffffffffffffff1681526020019081526020015f205f8373ffffffffffffffffffffffffffffffffffffffff1673ffffffffffffffffffffffffffffffffffffffff1681526020019081526020015f2054905092915050565b60055f9054906101000a900473ffffffffffffffffffffffffffffffffffffffff1673ffffffffffffffffffffffffffffffffffffffff166324d7806c336040518263ffffffff1660e01b815260040161157d9190612b26565b602060405180830381865afa158015611598573d5f803e3d5ffd5b505050506040513d601f19601f820116820180604052508101906115bc9190612b69565b6115fb576040517f08c379a00000000000000000000000000000000000000000000000000000000081526004016115f290612d18565b60405180910390fd5b805182511461163f576040517f08c379a000000000000000000000000000000000000000000000000000000000815260040161163690613151565b60405180910390fd5b60055f9054906101000a900473ffffffffffffffffffffffffffffffffffffffff1673ffffffffffffffffffffffffffffffffffffffff166324d7806c336040518263ffffffff1660e01b81526004016116999190612b26565b602060405180830381865afa1580156116b4573d5f803e3d5ffd5b505050506040513d601f19601f820116820180604052508101906116d89190612b69565b611717576040517f08c379a000000000000000000000000000000000000000000000000000000000815260040161170e90612d18565b60405180910390fd5b5f805b83518110156118505782818151811061173657611735612ebd565b5b602002602001015182611749919061316f565b915060055f9054906101000a900473ffffffffffffffffffffffffffffffffffffffff1673ffffffffffffffffffffffffffffffffffffffff1663f7cd726984838151811061179b5761179a612ebd565b5b60200260200101516040518263ffffffff1660e01b81526004016117bf91906124a3565b602060405180830381865afa1580156117da573d5f803e3d5ffd5b505050506040513d601f19601f820116820180604052508101906117fe9190612b69565b61183d576040517f08c379a0000000000000000000000000000000000000000000000000000000008152600401611834906131ec565b60405180910390fd5b808061184890612f17565b91505061171a565b50611859610625565b81611862610527565b61186c919061316f565b11156118ad576040517f08c379a00000000000000000000000000000000000000000000000000000000081526004016118a49061327a565b60405180910390fd5b5f5b83518110156119c65760055f9054906101000a900473ffffffffffffffffffffffffffffffffffffffff1673ffffffffffffffffffffffffffffffffffffffff1663ee5277ca85838151811061190857611907612ebd565b5b602002602001015185848151811061192357611922612ebd565b5b60200260200101516040518363ffffffff1660e01b81526004016119489291906130e0565b5f604051808303815f87803b15801561195f575f80fd5b505af1158015611971573d5f803e3d5ffd5b505050506119b384828151811061198b5761198a612ebd565b5b60200260200101518483815181106119a6576119a5612ebd565b5b6020026020010151611dd1565b80806119be90612f17565b9150506118af565b50505050565b60055f9054906101000a900473ffffffffffffffffffffffffffffffffffffffff1673ffffffffffffffffffffffffffffffffffffffff166324d7806c336040518263ffffffff1660e01b8152600401611a269190612b26565b602060405180830381865afa158015611a41573d5f803e3d5ffd5b505050506040513d601f19601f82011682018060405250810190611a659190612b69565b611aa4576040517f08c379a0000000000000000000000000000000000000000000000000000000008152600401611a9b90612d18565b60405180910390fd5b5f81604051602001611ab69190612c67565b60405160208183030381529060405280519060200120905060055f9054906101000a900473ffffffffffffffffffffffffffffffffffffffff1673ffffffffffffffffffffffffffffffffffffffff166324c2be0e8284336040518463ffffffff1660e01b8152600401611b2c93929190612c99565b5f604051808303815f87803b158015611b43575f80fd5b505af1158015611b55573d5f803e3d5ffd5b505050503373ffffffffffffffffffffffffffffffffffffffff168273ffffffffffffffffffffffffffffffffffffffff167fe1d328e9144bdd6e3b482fab38aab3ce0734a15b5c72fde273ccb3507478010c60405160405180910390a35050565b5f33905090565b611bcb8383836001611e50565b505050565b5f611bdb84846114a1565b90507fffffffffffffffffffffffffffffffffffffffffffffffffffffffffffffffff8114611c5c5781811015611c4d578281836040517ffb8f41b2000000000000000000000000000000000000000000000000000000008152600401611c4493929190613298565b60405180910390fd5b611c5b84848484035f611e50565b5b50505050565b5f73ffffffffffffffffffffffffffffffffffffffff168373ffffffffffffffffffffffffffffffffffffffff1603611cd2575f6040517f96c6fd1e000000000000000000000000000000000000000000000000000000008152600401611cc99190612b26565b60405180910390fd5b5f73ffffffffffffffffffffffffffffffffffffffff168273ffffffffffffffffffffffffffffffffffffffff1603611d42575f6040517fec442f05000000000000000000000000000000000000000000000000000000008152600401611d399190612b26565b60405180910390fd5b611d4d83838361201f565b505050565b5f73ffffffffffffffffffffffffffffffffffffffff168273ffffffffffffffffffffffffffffffffffffffff1603611dc2575f6040517f96c6fd1e000000000000000000000000000000000000000000000000000000008152600401611db99190612b26565b60405180910390fd5b611dcd825f8361201f565b5050565b5f73ffffffffffffffffffffffffffffffffffffffff168273ffffffffffffffffffffffffffffffffffffffff1603611e41575f6040517fec442f05000000000000000000000000000000000000000000000000000000008152600401611e389190612b26565b60405180910390fd5b611e4c5f838361201f565b5050565b5f73ffffffffffffffffffffffffffffffffffffffff168473ffffffffffffffffffffffffffffffffffffffff1603611ec0575f6040517fe602df05000000000000000000000000000000000000000000000000000000008152600401611eb79190612b26565b60405180910390fd5b5f73ffffffffffffffffffffffffffffffffffffffff168373ffffffffffffffffffffffffffffffffffffffff1603611f30575f6040517f94280d62000000000000000000000000000000000000000000000000000000008152600401611f279190612b26565b60405180910390fd5b8160015f8673ffffffffffffffffffffffffffffffffffffffff1673ffffffffffffffffffffffffffffffffffffffff1681526020019081526020015f205f8573ffffffffffffffffffffffffffffffffffffffff1673ffffffffffffffffffffffffffffffffffffffff1681526020019081526020015f20819055508015612019578273ffffffffffffffffffffffffffffffffffffffff168473ffffffffffffffffffffffffffffffffffffffff167f8c5be1e5ebec7d5bd14f71427d1e84f3dd0314c0f7b2291e5b200ac8c7c3b9258460405161201091906124a3565b60405180910390a35b50505050565b61202a8383836120c2565b5f73ffffffffffffffffffffffffffffffffffffffff168373ffffffffffffffffffffffffffffffffffffffff16036120bd575f612066610625565b90505f612071610527565b9050818111156120ba5780826040517f9e79f8540000000000000000000000000000000000000000000000000000000081526004016120b192919061302b565b60405180910390fd5b50505b505050565b5f73ffffffffffffffffffffffffffffffffffffffff168373ffffffffffffffffffffffffffffffffffffffff1603612112578060025f828254612106919061316f565b925050819055506121e0565b5f805f8573ffffffffffffffffffffffffffffffffffffffff1673ffffffffffffffffffffffffffffffffffffffff1681526020019081526020015f205490508181101561219b578381836040517fe450d38c00000000000000000000000000000000000000000000000000000000815260040161219293929190613298565b60405180910390fd5b8181035f808673ffffffffffffffffffffffffffffffffffffffff1673ffffffffffffffffffffffffffffffffffffffff1681526020019081526020015f2081905550505b5f73ffffffffffffffffffffffffffffffffffffffff168273ffffffffffffffffffffffffffffffffffffffff1603612227578060025f8282540392505081905550612271565b805f808473ffffffffffffffffffffffffffffffffffffffff1673ffffffffffffffffffffffffffffffffffffffff1681526020019081526020015f205f82825401925050819055505b8173ffffffffffffffffffffffffffffffffffffffff168373ffffffffffffffffffffffffffffffffffffffff167fddf252ad1be2c89b69c2b068fc378daa952ba7f163c4a11628f55a4df523b3ef836040516122ce91906124a3565b60405180910390a3505050565b5f81519050919050565b5f82825260208201905092915050565b5f5b838110156123125780820151818401526020810190506122f7565b5f8484015250505050565b5f601f19601f8301169050919050565b5f612337826122db565b61234181856122e5565b93506123518185602086016122f5565b61235a8161231d565b840191505092915050565b5f6020820190508181035f83015261237d818461232d565b905092915050565b5f604051905090565b5f80fd5b5f80fd5b5f73ffffffffffffffffffffffffffffffffffffffff82169050919050565b5f6123bf82612396565b9050919050565b6123cf816123b5565b81146123d9575f80fd5b50565b5f813590506123ea816123c6565b92915050565b5f819050919050565b612402816123f0565b811461240c575f80fd5b50565b5f8135905061241d816123f9565b92915050565b5f80604083850312156124395761243861238e565b5b5f612446858286016123dc565b92505060206124578582860161240f565b9150509250929050565b5f8115159050919050565b61247581612461565b82525050565b5f60208201905061248e5f83018461246c565b92915050565b61249d816123f0565b82525050565b5f6020820190506124b65f830184612494565b92915050565b5f81519050919050565b5f82825260208201905092915050565b5f819050602082019050919050565b6124ee816123b5565b82525050565b5f6124ff83836124e5565b60208301905092915050565b5f602082019050919050565b5f612521826124bc565b61252b81856124c6565b9350612536836124d6565b805f5b8381101561256657815161254d88826124f4565b97506125588361250b565b925050600181019050612539565b5085935050505092915050565b5f6020820190508181035f83015261258b8184612517565b905092915050565b5f805f606084860312156125aa576125a961238e565b5b5f6125b7868287016123dc565b93505060206125c8868287016123dc565b92505060406125d98682870161240f565b9150509250925092565b5f60ff82169050919050565b6125f8816125e3565b82525050565b5f6020820190506126115f8301846125ef565b92915050565b5f6020828403121561262c5761262b61238e565b5b5f612639848285016123dc565b91505092915050565b5f819050919050565b5f61266561266061265b84612396565b612642565b612396565b9050919050565b5f6126768261264b565b9050919050565b5f6126878261266c565b9050919050565b6126978161267d565b82525050565b5f6020820190506126b05f83018461268e565b92915050565b5f80fd5b7f4e487b71000000000000000000000000000000000000000000000000000000005f52604160045260245ffd5b6126f08261231d565b810181811067ffffffffffffffff8211171561270f5761270e6126ba565b5b80604052505050565b5f612721612385565b905061272d82826126e7565b919050565b5f67ffffffffffffffff82111561274c5761274b6126ba565b5b602082029050602081019050919050565b5f80fd5b5f61277361276e84612732565b612718565b905080838252602082019050602084028301858111156127965761279561275d565b5b835b818110156127bf57806127ab88826123dc565b845260208401935050602081019050612798565b5050509392505050565b5f82601f8301126127dd576127dc6126b6565b5b81356127ed848260208601612761565b91505092915050565b5f67ffffffffffffffff8211156128105761280f6126ba565b5b602082029050602081019050919050565b5f61283361282e846127f6565b612718565b905080838252602082019050602084028301858111156128565761285561275d565b5b835b8181101561287f578061286b888261240f565b845260208401935050602081019050612858565b5050509392505050565b5f82601f83011261289d5761289c6126b6565b5b81356128ad848260208601612821565b91505092915050565b5f80604083850312156128cc576128cb61238e565b5b5f83013567ffffffffffffffff8111156128e9576128e8612392565b5b6128f5858286016127c9565b925050602083013567ffffffffffffffff81111561291657612915612392565b5b61292285828601612889565b9150509250929050565b5f60408201905061293f5f83018561246c565b61294c602083018461246c565b9392505050565b5f61295d8261266c565b9050919050565b61296d81612953565b82525050565b5f6020820190506129865f830184612964565b92915050565b5f80604083850312156129a2576129a161238e565b5b5f6129af858286016123dc565b92505060206129c0858286016123dc565b9150509250929050565b7f4e487b71000000000000000000000000000000000000000000000000000000005f52602260045260245ffd5b5f6002820490506001821680612a0e57607f821691505b602082108103612a2157612a206129ca565b5b50919050565b5f81519050612a35816123c6565b92915050565b5f612a4d612a4884612732565b612718565b90508083825260208201905060208402830185811115612a7057612a6f61275d565b5b835b81811015612a995780612a858882612a27565b845260208401935050602081019050612a72565b5050509392505050565b5f82601f830112612ab757612ab66126b6565b5b8151612ac7848260208601612a3b565b91505092915050565b5f60208284031215612ae557612ae461238e565b5b5f82015167ffffffffffffffff811115612b0257612b01612392565b5b612b0e84828501612aa3565b91505092915050565b612b20816123b5565b82525050565b5f602082019050612b395f830184612b17565b92915050565b612b4881612461565b8114612b52575f80fd5b50565b5f81519050612b6381612b3f565b92915050565b5f60208284031215612b7e57612b7d61238e565b5b5f612b8b84828501612b55565b91505092915050565b7f43616c6c6572206973206e6f742061207265737472696374696f6e2061646d695f8201527f6e00000000000000000000000000000000000000000000000000000000000000602082015250565b5f612bee6021836122e5565b9150612bf982612b94565b604082019050919050565b5f6020820190508181035f830152612c1b81612be2565b9050919050565b5f8160601b9050919050565b5f612c3882612c22565b9050919050565b5f612c4982612c2e565b9050919050565b612c61612c5c826123b5565b612c3f565b82525050565b5f612c728284612c50565b60148201915081905092915050565b5f819050919050565b612c9381612c81565b82525050565b5f606082019050612cac5f830186612c8a565b612cb96020830185612b17565b612cc66040830184612b17565b949350505050565b7f43616c6c6572206973206e6f742061206d696e742061646d696e0000000000005f82015250565b5f612d02601a836122e5565b9150612d0d82612cce565b602082019050919050565b5f6020820190508181035f830152612d2f81612cf6565b9050919050565b5f81905092915050565b612d49816123b5565b82525050565b5f612d5a8383612d40565b60208301905092915050565b5f612d70826124bc565b612d7a8185612d36565b9350612d85836124d6565b805f5b83811015612db5578151612d9c8882612d4f565b9750612da78361250b565b925050600181019050612d88565b5085935050505092915050565b5f81519050919050565b5f81905092915050565b5f819050602082019050919050565b612dee816123f0565b82525050565b5f612dff8383612de5565b60208301905092915050565b5f602082019050919050565b5f612e2182612dc2565b612e2b8185612dcc565b9350612e3683612dd6565b805f5b83811015612e66578151612e4d8882612df4565b9750612e5883612e0b565b925050600181019050612e39565b5085935050505092915050565b5f612e7e8285612d66565b9150612e8a8284612e17565b91508190509392505050565b5f604082019050612ea95f830185612c8a565b612eb66020830184612b17565b9392505050565b7f4e487b71000000000000000000000000000000000000000000000000000000005f52603260045260245ffd5b7f4e487b71000000000000000000000000000000000000000000000000000000005f52601160045260245ffd5b5f612f21826123f0565b91507fffffffffffffffffffffffffffffffffffffffffffffffffffffffffffffffff8203612f5357612f52612eea565b5b600182019050919050565b5f81519050612f6c816123f9565b92915050565b5f60208284031215612f8757612f8661238e565b5b5f612f9484828501612f5e565b91505092915050565b5f819050919050565b612fb7612fb2826123f0565b612f9d565b82525050565b5f612fc88285612c50565b601482019150612fd88284612fa6565b6020820191508190509392505050565b5f608082019050612ffb5f830187612c8a565b6130086020830186612b17565b6130156040830185612494565b6130226060830184612b17565b95945050505050565b5f60408201905061303e5f830185612494565b61304b6020830184612494565b9392505050565b7f45524332303a207472616e7366657220746f20746865207a65726f20616464725f8201527f6573730000000000000000000000000000000000000000000000000000000000602082015250565b5f6130ac6023836122e5565b91506130b782613052565b604082019050919050565b5f6020820190508181035f8301526130d9816130a0565b9050919050565b5f6040820190506130f35f830185612b17565b6131006020830184612494565b9392505050565b7f4172726179206c656e677468206d69736d6174636800000000000000000000005f82015250565b5f61313b6015836122e5565b915061314682613107565b602082019050919050565b5f6020820190508181035f8301526131688161312f565b9050919050565b5f613179826123f0565b9150613184836123f0565b925082820190508082111561319c5761319b612eea565b5b92915050565b7f45786365656473206d6178696d756d206d696e7420616d6f756e7400000000005f82015250565b5f6131d6601b836122e5565b91506131e1826131a2565b602082019050919050565b5f6020820190508181035f830152613203816131ca565b9050919050565b7f546f74616c20737570706c79206578636565647320746865206d6178696d756d5f8201527f2063617000000000000000000000000000000000000000000000000000000000602082015250565b5f6132646024836122e5565b915061326f8261320a565b604082019050919050565b5f6020820190508181035f83015261329181613258565b9050919050565b5f6060820190506132ab5f830186612b17565b6132b86020830185612494565b6132c56040830184612494565b94935050505056fea26469706673582212206869b0b808f2288a4dd38336afe85f533cfbbe3fb34060866a99f04b47301f0f64736f6c63430008140033608060405234801562000010575f80fd5b5060405162001324380380620013248339818101604052810190620000369190620001bd565b81620000495f826200005a60201b60201c565b505080600681905550505062000202565b5f62000087835f018373ffffffffffffffffffffffffffffffffffffffff165f1b6200008f60201b60201c565b905092915050565b5f620000a283836200010060201b60201c565b620000f657825f0182908060018154018082558091505060019003905f5260205f20015f9091909190915055825f0180549050836001015f8481526020019081526020015f208190555060019050620000fa565b5f90505b92915050565b5f80836001015f8481526020019081526020015f20541415905092915050565b5f80fd5b5f73ffffffffffffffffffffffffffffffffffffffff82169050919050565b5f6200014f8262000124565b9050919050565b620001618162000143565b81146200016c575f80fd5b50565b5f815190506200017f8162000156565b92915050565b5f819050919050565b620001998162000185565b8114620001a4575f80fd5b50565b5f81519050620001b7816200018e565b92915050565b5f8060408385031215620001d657620001d562000120565b5b5f620001e5858286016200016f565b9250506020620001f885828601620001a7565b9150509250929050565b61111480620002105f395ff3fe608060405234801561000f575f80fd5b506004361061009c575f3560e01c80636ef0d855116100645780636ef0d855146101585780636f5fbcbf14610189578063956e8fac146101b9578063ee5277ca146101d5578063f7cd7269146101f15761009c565b80631e7269c5146100a057806324c2be0e146100d057806324d7806c146100ec57806331ae450b1461011c578063545dcac31461013a575b5f80fd5b6100ba60048036038101906100b59190610a66565b610221565b6040516100c79190610aa9565b60405180910390f35b6100ea60048036038101906100e59190610af5565b610236565b005b61010660048036038101906101019190610a66565b6103c9565b6040516101139190610b5f565b60405180910390f35b6101246103db565b6040516101319190610c2f565b60405180910390f35b6101426103eb565b60405161014f9190610aa9565b60405180910390f35b610172600480360381019061016d9190610a66565b6103f1565b604051610180929190610c4f565b60405180910390f35b6101a3600480360381019061019e9190610c76565b610411565b6040516101b09190610b5f565b60405180910390f35b6101d360048036038101906101ce9190610af5565b6104ea565b005b6101ef60048036038101906101ea9190610cde565b610632565b005b61020b60048036038101906102069190610d1c565b61071d565b6040516102189190610b5f565b60405180910390f35b6005602052805f5260405f205f915090505481565b61023f816103c9565b61027e576040517f08c379a000000000000000000000000000000000000000000000000000000000815260040161027590610da1565b60405180910390fd5b60016102895f61072b565b116102c9576040517f08c379a00000000000000000000000000000000000000000000000000000000081526004016102c090610e09565b60405180910390fd5b6102e360035f8581526020019081526020015f208261073e565b505f6102ee5f61072b565b90505f61030a60035f8781526020019081526020015f2061072b565b90505f60028361031a9190610e81565b821190508373ffffffffffffffffffffffffffffffffffffffff168573ffffffffffffffffffffffffffffffffffffffff167fef24fa01fe05a254ede9c78fbf249d647f89ea96152511b4f4be62f2e280469c85858560405161037f93929190610eb1565b60405180910390a380156103c15760035f8781526020019081526020015f205f8082015f8082015f6103b191906109cf565b505050506103bf5f8661076b565b505b505050505050565b5f6103d45f83610798565b9050919050565b60606103e65f6107c5565b905090565b60065481565b6007602052805f5260405f205f91509050805f0154908060010154905082565b5f61041b826103c9565b61045a576040517f08c379a000000000000000000000000000000000000000000000000000000000815260040161045190610f30565b60405180910390fd5b61047460045f8581526020019081526020015f208361073e565b505f60026104815f61072b565b61048b9190610e81565b6104a460045f8781526020019081526020015f2061072b565b11905080156104df5760045f8581526020019081526020015f205f8082015f8082015f6104d191906109cf565b5050505060019150506104e4565b5f9150505b92915050565b6104f3816103c9565b610532576040517f08c379a000000000000000000000000000000000000000000000000000000000815260040161052990610f98565b60405180910390fd5b61054c60025f8581526020019081526020015f208261073e565b505f6105575f61072b565b90505f61057360025f8781526020019081526020015f2061072b565b90505f6002836105839190610e81565b821190508373ffffffffffffffffffffffffffffffffffffffff168573ffffffffffffffffffffffffffffffffffffffff167f425d62a068a9ea6445218c290d76a4a15d47ab8ff579a3f5548f68b432ec66208585856040516105e893929190610eb1565b60405180910390a3801561062a5760025f8781526020019081526020015f205f8082015f8082015f61061a91906109cf565b505050506106285f8661073e565b505b505050505050565b5f60075f8473ffffffffffffffffffffffffffffffffffffffff1673ffffffffffffffffffffffffffffffffffffffff1681526020019081526020015f2090506201518081600101546106859190610e81565b62015180426106949190610e81565b11156106a3575f815f01819055505b60065482825f01546106b59190610fb6565b11156106f6576040517f08c379a00000000000000000000000000000000000000000000000000000000081526004016106ed90611033565b60405180910390fd5b81815f015f8282546107089190610fb6565b92505081905550428160010181905550505050565b5f6006548211159050919050565b5f610737825f016107e4565b9050919050565b5f610763835f018373ffffffffffffffffffffffffffffffffffffffff165f1b6107f3565b905092915050565b5f610790835f018373ffffffffffffffffffffffffffffffffffffffff165f1b61085a565b905092915050565b5f6107bd835f018373ffffffffffffffffffffffffffffffffffffffff165f1b610956565b905092915050565b60605f6107d3835f01610976565b905060608190508092505050919050565b5f815f01805490509050919050565b5f6107fe8383610956565b61085057825f0182908060018154018082558091505060019003905f5260205f20015f9091909190915055825f0180549050836001015f8481526020019081526020015f208190555060019050610854565b5f90505b92915050565b5f80836001015f8481526020019081526020015f205490505f811461094b575f6001826108879190611051565b90505f6001865f018054905061089d9190611051565b9050808214610903575f865f0182815481106108bc576108bb611084565b5b905f5260205f200154905080875f0184815481106108dd576108dc611084565b5b905f5260205f20018190555083876001015f8381526020019081526020015f2081905550505b855f01805480610916576109156110b1565b5b600190038181905f5260205f20015f90559055856001015f8681526020019081526020015f205f905560019350505050610950565b5f9150505b92915050565b5f80836001015f8481526020019081526020015f20541415905092915050565b6060815f018054806020026020016040519081016040528092919081815260200182805480156109c357602002820191905f5260205f20905b8154815260200190600101908083116109af575b50505050509050919050565b5080545f8255905f5260205f20908101906109ea91906109ed565b50565b5b80821115610a04575f815f9055506001016109ee565b5090565b5f80fd5b5f73ffffffffffffffffffffffffffffffffffffffff82169050919050565b5f610a3582610a0c565b9050919050565b610a4581610a2b565b8114610a4f575f80fd5b50565b5f81359050610a6081610a3c565b92915050565b5f60208284031215610a7b57610a7a610a08565b5b5f610a8884828501610a52565b91505092915050565b5f819050919050565b610aa381610a91565b82525050565b5f602082019050610abc5f830184610a9a565b92915050565b5f819050919050565b610ad481610ac2565b8114610ade575f80fd5b50565b5f81359050610aef81610acb565b92915050565b5f805f60608486031215610b0c57610b0b610a08565b5b5f610b1986828701610ae1565b9350506020610b2a86828701610a52565b9250506040610b3b86828701610a52565b9150509250925092565b5f8115159050919050565b610b5981610b45565b82525050565b5f602082019050610b725f830184610b50565b92915050565b5f81519050919050565b5f82825260208201905092915050565b5f819050602082019050919050565b610baa81610a2b565b82525050565b5f610bbb8383610ba1565b60208301905092915050565b5f602082019050919050565b5f610bdd82610b78565b610be78185610b82565b9350610bf283610b92565b805f5b83811015610c22578151610c098882610bb0565b9750610c1483610bc7565b925050600181019050610bf5565b5085935050505092915050565b5f6020820190508181035f830152610c478184610bd3565b905092915050565b5f604082019050610c625f830185610a9a565b610c6f6020830184610a9a565b9392505050565b5f8060408385031215610c8c57610c8b610a08565b5b5f610c9985828601610ae1565b9250506020610caa85828601610a52565b9150509250929050565b610cbd81610a91565b8114610cc7575f80fd5b50565b5f81359050610cd881610cb4565b92915050565b5f8060408385031215610cf457610cf3610a08565b5b5f610d0185828601610a52565b9250506020610d1285828601610cca565b9150509250929050565b5f60208284031215610d3157610d30610a08565b5b5f610d3e84828501610cca565b91505092915050565b5f82825260208201905092915050565b7f4f6e6c792061646d696e732063616e2072656d6f7665000000000000000000005f82015250565b5f610d8b601683610d47565b9150610d9682610d57565b602082019050919050565b5f6020820190508181035f830152610db881610d7f565b9050919050565b7f43616e6e6f742072656d6f766520746865206c6173742061646d696e000000005f82015250565b5f610df3601c83610d47565b9150610dfe82610dbf565b602082019050919050565b5f6020820190508181035f830152610e2081610de7565b9050919050565b7f4e487b71000000000000000000000000000000000000000000000000000000005f52601260045260245ffd5b7f4e487b71000000000000000000000000000000000000000000000000000000005f52601160045260245ffd5b5f610e8b82610a91565b9150610e9683610a91565b925082610ea657610ea5610e27565b5b828204905092915050565b5f606082019050610ec45f830186610a9a565b610ed16020830185610a9a565b610ede6040830184610b50565b949350505050565b7f4f6e6c79206d696e742061646d696e732063616e207369676e000000000000005f82015250565b5f610f1a601983610d47565b9150610f2582610ee6565b602082019050919050565b5f6020820190508181035f830152610f4781610f0e565b9050919050565b7f4f6e6c792061646d696e732063616e207369676e0000000000000000000000005f82015250565b5f610f82601483610d47565b9150610f8d82610f4e565b602082019050919050565b5f6020820190508181035f830152610faf81610f76565b9050919050565b5f610fc082610a91565b9150610fcb83610a91565b9250828201905080821115610fe357610fe2610e54565b5b92915050565b7f4d696e7420616d6f756e74206578636565647320746865206c696d69740000005f82015250565b5f61101d601d83610d47565b915061102882610fe9565b602082019050919050565b5f6020820190508181035f83015261104a81611011565b9050919050565b5f61105b82610a91565b915061106683610a91565b925082820390508181111561107e5761107d610e54565b5b92915050565b7f4e487b71000000000000000000000000000000000000000000000000000000005f52603260045260245ffd5b7f4e487b71000000000000000000000000000000000000000000000000000000005f52603160045260245ffdfea2646970667358221220ee7f23d0ee30c161581892acc8bc82b4fc3561127f9bff3130f66e87a648f9e164736f6c63430008140033608060405234801562000010575f80fd5b50604051620013b5380380620013b58339818101604052810190620000369190620001bd565b81620000495f826200005a60201b60201c565b505080600481905550505062000202565b5f62000087835f018373ffffffffffffffffffffffffffffffffffffffff165f1b6200008f60201b60201c565b905092915050565b5f620000a283836200010060201b60201c565b620000f657825f0182908060018154018082558091505060019003905f5260205f20015f9091909190915055825f0180549050836001015f8481526020019081526020015f208190555060019050620000fa565b5f90505b92915050565b5f80836001015f8481526020019081526020015f20541415905092915050565b5f80fd5b5f73ffffffffffffffffffffffffffffffffffffffff82169050919050565b5f6200014f8262000124565b9050919050565b620001618162000143565b81146200016c575f80fd5b50565b5f815190506200017f8162000156565b92915050565b5f819050919050565b620001998162000185565b8114620001a4575f80fd5b50565b5f81519050620001b7816200018e565b92915050565b5f8060408385031215620001d657620001d562000120565b5b5f620001e5858286016200016f565b9250506020620001f885828601620001a7565b9150509250929050565b6111a580620002105f395ff3fe608060405234801561000f575f80fd5b5060043610610086575f3560e01c806354b4fdfd1161005957806354b4fdfd146101105780635ddbe56d1461012c5780635edf9e611461014a578063956e8fac1461017a57610086565b806324c2be0e1461008a57806324d7806c146100a657806331ae450b146100d6578063537ca041146100f4575b5f80fd5b6100a4600480360381019061009f9190610aed565b610196565b005b6100c060048036038101906100bb9190610b3d565b610329565b6040516100cd9190610b82565b60405180910390f35b6100de61033b565b6040516100eb9190610c52565b60405180910390f35b61010e60048036038101906101099190610ca5565b61034b565b005b61012a60048036038101906101259190610d09565b6104a6565b005b61013461059c565b6040516101419190610d56565b60405180910390f35b610164600480360381019061015f9190610b3d565b6105a2565b6040516101719190610d56565b60405180910390f35b610194600480360381019061018f9190610aed565b610637565b005b61019f81610329565b6101de576040517f08c379a00000000000000000000000000000000000000000000000000000000081526004016101d590610dc9565b60405180910390fd5b60016101e95f61077f565b11610229576040517f08c379a000000000000000000000000000000000000000000000000000000000815260040161022090610e31565b60405180910390fd5b61024360035f8581526020019081526020015f2082610792565b505f61024e5f61077f565b90505f61026a60035f8781526020019081526020015f2061077f565b90505f60028361027a9190610ea9565b821190508373ffffffffffffffffffffffffffffffffffffffff168573ffffffffffffffffffffffffffffffffffffffff167fef24fa01fe05a254ede9c78fbf249d647f89ea96152511b4f4be62f2e280469c8585856040516102df93929190610ed9565b60405180910390a380156103215760035f8781526020019081526020015f205f8082015f8082015f6103119190610a23565b5050505061031f5f866107bf565b505b505050505050565b5f6103345f836107ec565b9050919050565b60606103465f610819565b905090565b61035481610329565b610393576040517f08c379a000000000000000000000000000000000000000000000000000000000815260040161038a90610f58565b60405180910390fd5b6103ad60055f8681526020019081526020015f2082610792565b505f6103b85f61077f565b90505f6103d460055f8881526020019081526020015f2061077f565b90505f6002836103e49190610ea9565b821190508373ffffffffffffffffffffffffffffffffffffffff168673ffffffffffffffffffffffffffffffffffffffff16887f7dda47cfc180dffead1d3e24ead3f174a40d13cc7efead5ce81ab38204eb18088887878760405161044c9493929190610f76565b60405180910390a4801561049d578460065f8873ffffffffffffffffffffffffffffffffffffffff1673ffffffffffffffffffffffffffffffffffffffff1681526020019081526020015f20819055505b50505050505050565b5f60075f8473ffffffffffffffffffffffffffffffffffffffff1673ffffffffffffffffffffffffffffffffffffffff1681526020019081526020015f2090506201518081600101546104f99190610ea9565b62015180426105089190610ea9565b1115610517575f815f01819055505b5f610521846105a2565b90508083835f01546105339190610fb9565b1115610574576040517f08c379a000000000000000000000000000000000000000000000000000000000815260040161056b9061105c565b60405180910390fd5b82825f015f8282546105869190610fb9565b9250508190555042826001018190555050505050565b60045481565b5f8060065f8473ffffffffffffffffffffffffffffffffffffffff1673ffffffffffffffffffffffffffffffffffffffff1681526020019081526020015f2054036105f1576004549050610632565b60065f8373ffffffffffffffffffffffffffffffffffffffff1673ffffffffffffffffffffffffffffffffffffffff1681526020019081526020015f205490505b919050565b61064081610329565b61067f576040517f08c379a0000000000000000000000000000000000000000000000000000000008152600401610676906110c4565b60405180910390fd5b61069960025f8581526020019081526020015f2082610792565b505f6106a45f61077f565b90505f6106c060025f8781526020019081526020015f2061077f565b90505f6002836106d09190610ea9565b821190508373ffffffffffffffffffffffffffffffffffffffff168573ffffffffffffffffffffffffffffffffffffffff167f425d62a068a9ea6445218c290d76a4a15d47ab8ff579a3f5548f68b432ec662085858560405161073593929190610ed9565b60405180910390a380156107775760025f8781526020019081526020015f205f8082015f8082015f6107679190610a23565b505050506107755f86610792565b505b505050505050565b5f61078b825f01610838565b9050919050565b5f6107b7835f018373ffffffffffffffffffffffffffffffffffffffff165f1b610847565b905092915050565b5f6107e4835f018373ffffffffffffffffffffffffffffffffffffffff165f1b6108ae565b905092915050565b5f610811835f018373ffffffffffffffffffffffffffffffffffffffff165f1b6109aa565b905092915050565b60605f610827835f016109ca565b905060608190508092505050919050565b5f815f01805490509050919050565b5f61085283836109aa565b6108a457825f0182908060018154018082558091505060019003905f5260205f20015f9091909190915055825f0180549050836001015f8481526020019081526020015f2081905550600190506108a8565b5f90505b92915050565b5f80836001015f8481526020019081526020015f205490505f811461099f575f6001826108db91906110e2565b90505f6001865f01805490506108f191906110e2565b9050808214610957575f865f0182815481106109105761090f611115565b5b905f5260205f200154905080875f01848154811061093157610930611115565b5b905f5260205f20018190555083876001015f8381526020019081526020015f2081905550505b855f0180548061096a57610969611142565b5b600190038181905f5260205f20015f90559055856001015f8681526020019081526020015f205f9055600193505050506109a4565b5f9150505b92915050565b5f80836001015f8481526020019081526020015f20541415905092915050565b6060815f01805480602002602001604051908101604052809291908181526020018280548015610a1757602002820191905f5260205f20905b815481526020019060010190808311610a03575b50505050509050919050565b5080545f8255905f5260205f2090810190610a3e9190610a41565b50565b5b80821115610a58575f815f905550600101610a42565b5090565b5f80fd5b5f819050919050565b610a7281610a60565b8114610a7c575f80fd5b50565b5f81359050610a8d81610a69565b92915050565b5f73ffffffffffffffffffffffffffffffffffffffff82169050919050565b5f610abc82610a93565b9050919050565b610acc81610ab2565b8114610ad6575f80fd5b50565b5f81359050610ae781610ac3565b92915050565b5f805f60608486031215610b0457610b03610a5c565b5b5f610b1186828701610a7f565b9350506020610b2286828701610ad9565b9250506040610b3386828701610ad9565b9150509250925092565b5f60208284031215610b5257610b51610a5c565b5b5f610b5f84828501610ad9565b91505092915050565b5f8115159050919050565b610b7c81610b68565b82525050565b5f602082019050610b955f830184610b73565b92915050565b5f81519050919050565b5f82825260208201905092915050565b5f819050602082019050919050565b610bcd81610ab2565b82525050565b5f610bde8383610bc4565b60208301905092915050565b5f602082019050919050565b5f610c0082610b9b565b610c0a8185610ba5565b9350610c1583610bb5565b805f5b83811015610c45578151610c2c8882610bd3565b9750610c3783610bea565b925050600181019050610c18565b5085935050505092915050565b5f6020820190508181035f830152610c6a8184610bf6565b905092915050565b5f819050919050565b610c8481610c72565b8114610c8e575f80fd5b50565b5f81359050610c9f81610c7b565b92915050565b5f805f8060808587031215610cbd57610cbc610a5c565b5b5f610cca87828801610a7f565b9450506020610cdb87828801610ad9565b9350506040610cec87828801610c91565b9250506060610cfd87828801610ad9565b91505092959194509250565b5f8060408385031215610d1f57610d1e610a5c565b5b5f610d2c85828601610ad9565b9250506020610d3d85828601610c91565b9150509250929050565b610d5081610c72565b82525050565b5f602082019050610d695f830184610d47565b92915050565b5f82825260208201905092915050565b7f4f6e6c792061646d696e732063616e2072656d6f7665000000000000000000005f82015250565b5f610db3601683610d6f565b9150610dbe82610d7f565b602082019050919050565b5f6020820190508181035f830152610de081610da7565b9050919050565b7f43616e6e6f742072656d6f766520746865206c6173742061646d696e000000005f82015250565b5f610e1b601c83610d6f565b9150610e2682610de7565b602082019050919050565b5f6020820190508181035f830152610e4881610e0f565b9050919050565b7f4e487b71000000000000000000000000000000000000000000000000000000005f52601260045260245ffd5b7f4e487b71000000000000000000000000000000000000000000000000000000005f52601160045260245ffd5b5f610eb382610c72565b9150610ebe83610c72565b925082610ece57610ecd610e4f565b5b828204905092915050565b5f606082019050610eec5f830186610d47565b610ef96020830185610d47565b610f066040830184610b73565b949350505050565b7f4f6e6c79207265737472696374696f6e2061646d696e732063616e207369676e5f82015250565b5f610f42602083610d6f565b9150610f4d82610f0e565b602082019050919050565b5f6020820190508181035f830152610f6f81610f36565b9050919050565b5f608082019050610f895f830187610d47565b610f966020830186610d47565b610fa36040830185610d47565b610fb06060830184610b73565b95945050505050565b5f610fc382610c72565b9150610fce83610c72565b9250828201905080821115610fe657610fe5610e7c565b5b92915050565b7f5472616e7366657220616d6f756e74206578636565647320746865206c696d695f8201527f7400000000000000000000000000000000000000000000000000000000000000602082015250565b5f611046602183610d6f565b915061105182610fec565b604082019050919050565b5f6020820190508181035f8301526110738161103a565b9050919050565b7f4f6e6c792061646d696e732063616e207369676e0000000000000000000000005f82015250565b5f6110ae601483610d6f565b91506110b98261107a565b602082019050919050565b5f6020820190508181035f8301526110db816110a2565b9050919050565b5f6110ec82610c72565b91506110f783610c72565b925082820390508181111561110f5761110e610e7c565b5b92915050565b7f4e487b71000000000000000000000000000000000000000000000000000000005f52603260045260245ffd5b7f4e487b71000000000000000000000000000000000000000000000000000000005f52603160045260245ffdfea26469706673582212200858c9a18092dcf0256079ac073e17c9b39f519377d49a252633b24cedd44a3364736f6c63430008140033",
  "immutableReferences": {
    "1117": [
      {
        "length": 32,
        "start": 1576
      }
    ]
  },
  "source": "// SPDX-License-Identifier: MIT\npragma solidity 0.8.20;\n\n\nimport \"@openzeppelin/contracts/token/ERC20/ERC20.sol\";\nimport \"@openzeppelin/contracts/token/ERC20/extensions/ERC20Capped.sol\";\nimport \"@openzeppelin/contracts/access/AccessControl.sol\";\nimport \"@openzeppelin/contracts/utils/structs/EnumerableMap.sol\";\nimport \"@openzeppelin/contracts/utils/structs/EnumerableSet.sol\";\n\ncontract Admin {\n    // Variables\n    EnumerableSet.AddressSet internal admins;\n    mapping(bytes32 => EnumerableSet.AddressSet) internal addAdminSignatures;\n    mapping(bytes32 => EnumerableSet.AddressSet) internal removeAdminSignatures;\n\n    // Constructor\n    constructor(address firstAdmin) {\n        EnumerableSet.add(admins, firstAdmin);\n    }\n\n    // Events\n    event SingAddAdmin(\n        address indexed newAdmin,\n        address indexed signer,\n        uint256 adminCount,\n        uint256 signatureCount,\n        bool isApproved\n    );\n    event SingRemoveAdmin(\n        address indexed removedAdmin,\n        address indexed signer,\n        uint256 adminCount,\n        uint256 signatureCount,\n        bool isApproved\n    );\n\n    // Functions\n    function signAddAdmin(bytes32 adminHash, address newAdmin, address signer) public {\n        require(isAdmin(signer), \"Only admins can sign\");\n        EnumerableSet.add(addAdminSignatures[adminHash], signer);\n        uint256 adminCount = EnumerableSet.length(admins);\n        uint256 signatureCount = EnumerableSet.length(addAdminSignatures[adminHash]);\n        bool isApproved = signatureCount > (adminCount / 2);\n        emit SingAddAdmin(\n            newAdmin,\n            signer,\n            adminCount,\n            signatureCount,\n            isApproved\n        );\n        if (isApproved) {\n            delete addAdminSignatures[adminHash]; // clear the signatures\n            EnumerableSet.add(admins, newAdmin);\n        }\n    }\n\n    function signRemoveAdmin(bytes32 adminHash, address newAdmin, address signer) public {\n        require(isAdmin(signer), \"Only admins can remove\");\n        require(EnumerableSet.length(admins) > 1, \"Cannot remove the last admin\");\n        EnumerableSet.add(removeAdminSignatures[adminHash], signer);\n        uint256 adminCount = EnumerableSet.length(admins);\n        uint256 signatureCount = EnumerableSet.length(removeAdminSignatures[adminHash]);\n        bool isApproved = signatureCount > (adminCount / 2);\n        emit SingRemoveAdmin(\n            newAdmin,\n            signer,\n            adminCount,\n            signatureCount,\n            isApproved\n        );\n        if (isApproved) {\n            delete removeAdminSignatures[adminHash]; // clear the signatures\n            EnumerableSet.remove(admins, newAdmin);\n        }\n    }\n\n    function isAdmin(address account) public view returns (bool) {\n        return EnumerableSet.contains(admins, account);\n    }\n\n    function getAdmins() public view returns (address[] memory) {\n        return EnumerableSet.values(admins);\n    }\n}\n\ncontract AdminMint is Admin {\n    // Variables\n    mapping(bytes32 => EnumerableSet.AddressSet) internal mintSignatures;\n    mapping(address => uint) public minted;\n    uint public TMAX;\n    mapping(address => MintedAmount) public mintedAmounts;\n\n    // Constructor\n    constructor(address firstAdmin, uint _tmax) Admin(firstAdmin) {\n        TMAX = _tmax;\n    }\n\n    struct MintedAmount {\n        uint256 amount;\n        uint256 lastUpdated;\n    }\n\n    // Functions\n    function isConsensus(bytes32 mintHash, address signer) public returns (bool) {\n        require(isAdmin(signer), \"Only mint admins can sign\");\n        EnumerableSet.add(mintSignatures[mintHash], signer);\n        bool isMintApproved = EnumerableSet.length(mintSignatures[mintHash]) > (EnumerableSet.length(admins) / 2);\n        if (isMintApproved) {\n            delete mintSignatures[mintHash]; // clear the signatures\n            return true;\n        } else {\n            return false;\n        }\n    }\n\n    function checkTMAX(uint256 mintAmount) public view returns (bool) {\n        return mintAmount <= TMAX;\n    }\n\n    function newMint(address account, uint256 amount) public {\n        MintedAmount storage data = mintedAmounts[account];\n\n        // reset the amount if a new day has started\n        if (block.timestamp / 86400 > data.lastUpdated / 86400) {\n            data.amount = 0;\n        }\n\n        // check if the transfer amount not exceeds the limit\n        require(data.amount + amount <= TMAX, \"Mint amount exceeds the limit\");\n\n        data.amount += amount;\n        data.lastUpdated = block.timestamp;\n    }\n}\n\ncontract AdminRestriction is Admin {\n    // Variables\n    uint public defaultTransferLimit;\n    mapping(bytes32 => EnumerableSet.AddressSet) private transferLimitProposals;\n    mapping(address => uint256) private userTransferLimits;\n    mapping(address => TransferedAmount) private transferedAmounts;\n\n    // Constructor\n    constructor(address firstAdmin, uint256 _transferLimit) Admin(firstAdmin) {\n        defaultTransferLimit = _transferLimit;\n    }\n\n    // Structs\n    struct TransferedAmount {\n        uint256 amount;\n        uint256 lastUpdated;\n    }\n\n    event SignTransferLimit(\n        bytes32 indexed transferHash,\n        address indexed account,\n        uint256 newLimit,\n        address indexed signer,\n        uint256 adminCount,\n        uint256 signatureCount,\n        bool isApproved\n    );\n\n    // Functions\n    function signTransferLimit(bytes32 transferHash, address account, uint256 _newLimit, address signer) public {\n        require(isAdmin(signer), \"Only restriction admins can sign\");\n        EnumerableSet.add(transferLimitProposals[transferHash], signer);\n        uint256 adminCount = EnumerableSet.length(admins);\n        uint256 signatureCount = EnumerableSet.length(transferLimitProposals[transferHash]);\n        bool isApproved = signatureCount > (adminCount / 2);\n        emit SignTransferLimit(\n            transferHash,\n            account,\n            _newLimit,\n            signer,\n            adminCount,\n            signatureCount,\n            isApproved\n        );\n        if (isApproved) {\n            userTransferLimits[account] = _newLimit;\n        }\n    }\n\n    function getTransferLimit(address account) public view returns (uint256) {\n        if (userTransferLimits[account] == 0) {\n            return defaultTransferLimit;\n        } else {\n            return userTransferLimits[account];\n        }\n    }\n\n    function newTransfer(address account, uint256 amount) public {\n        TransferedAmount storage data = transferedAmounts[account];\n\n        // reset the amount if a new day has started\n        if (block.timestamp / 86400 > data.lastUpdated / 86400) {\n            data.amount = 0;\n        }\n\n        // check if the transfer amount not exceeds the limit\n        uint256 userLimit = getTransferLimit(account);\n        require(data.amount + amount <= userLimit, \"Transfer amount exceeds the limit\");\n\n        data.amount += amount;\n        data.lastUpdated = block.timestamp;\n    }\n}\n\ncontract BDAToken is ERC20Capped {\n    // Variables\n    AdminMint public adminMint;\n    AdminRestriction public adminRestriction;\n    uint256 transferLimit;\n\n    // Constructor\n    constructor(string memory name, string memory symbol, uint256 tmax, uint256 _cap, uint256 _transferLimit) ERC20(name, symbol) ERC20Capped(_cap) {\n        adminMint = new AdminMint(msg.sender, tmax);\n        adminRestriction = new AdminRestriction(msg.sender, _transferLimit);\n    }\n\n    // Modifiers\n    modifier onlyMintAdmin {\n        require(adminMint.isAdmin(msg.sender), \"Caller is not a mint admin\");\n        _;\n    }\n\n    modifier onlyRestrictionAdmin {\n        require(adminRestriction.isAdmin(msg.sender), \"Caller is not a restriction admin\");\n        _;\n    }\n\n    // Events\n    event Mint(address indexed to, uint256 amount);\n    event SignAddingAdminMint(address indexed account, address indexed signer);\n    event SignRemovingAdminMint(address indexed account, address indexed signer);\n    event TransferBDAToken(address indexed from, address indexed to, uint256 amount, uint256 limit);\n\n    // Functions\n    function getAdminMint() public view returns (address[] memory) {\n        return adminMint.getAdmins();\n    }\n\n    function getAdminRestriction() public view returns (address[] memory) {\n        return adminRestriction.getAdmins();\n    }\n\n    function getTransferLimit(address account) public view returns (uint256) {\n        return adminRestriction.getTransferLimit(account);\n    }\n\n    function mint(address[] memory to, uint256[] memory amount) public onlyMintAdmin {\n        require(to.length == amount.length, \"Array length mismatch\");\n        require(adminMint.isAdmin(msg.sender), \"Caller is not a mint admin\");\n\n        // Check cap\n        uint256 amountMint = 0;\n        for (uint256 i = 0; i < to.length; i++) {\n            amountMint += amount[i];\n\n            // Check TMAX\n            require(adminMint.checkTMAX(amount[i]), \"Exceeds maximum mint amount\");\n        }\n        require(totalSupply() + amountMint <= cap(), \"Total supply exceeds the maximum cap\");\n\n        for (uint256 i = 0; i < to.length; i++) {\n            adminMint.newMint(to[i], amount[i]);\n            _mint(to[i], amount[i]);\n        }\n    }\n\n    function burnAccount() public {\n        uint balance = balanceOf(msg.sender);\n        if (balance == 0) {\n            return;\n        }\n        _burn(msg.sender, balance);\n    }\n\n    function transfer(address to, uint256 amount) public override returns (bool){\n        uint256 limit = adminRestriction.getTransferLimit(msg.sender);\n        emit TransferBDAToken(msg.sender, to, amount, limit);\n        require(to != address(0), \"ERC20: transfer to the zero address\");\n\n        // check if the transfer amount not exceeds the limit\n        adminRestriction.newTransfer(msg.sender, amount);\n\n        _transfer(msg.sender, to, amount);\n        return true;\n    }\n\n    /**\n     * @dev Function to approve minting of more than mintMax tokens need consensus from more than half of the mint admins\n     * @param accounts The addresses that will receive the minted tokens\n     * @param amounts The amounts of tokens that will be minted\n     */\n    function signMint(address[] memory accounts, uint256[] memory amounts) public onlyMintAdmin {\n        bytes32 mintHash = keccak256(abi.encodePacked(accounts, amounts));\n        if (adminMint.isConsensus(mintHash, msg.sender)) {\n            for (uint256 i = 0; i < accounts.length; i++) {\n                _mint(accounts[i], amounts[i]);\n            }\n        }\n    }\n\n    function signAddAdminMint(address account) public onlyMintAdmin {\n        bytes32 mintHash = keccak256(abi.encodePacked(account));\n        adminMint.signAddAdmin(mintHash, account, msg.sender);\n        emit SignAddingAdminMint(account, msg.sender);\n    }\n\n    function signRemoveAdminMint(address account) public onlyMintAdmin {\n        bytes32 mintHash = keccak256(abi.encodePacked(account));\n        adminMint.signRemoveAdmin(mintHash, account, msg.sender);\n        emit SignRemovingAdminMint(account, msg.sender);\n    }\n\n    function signAddAdminRestriction(address account) public onlyRestrictionAdmin {\n        bytes32 adminHash = keccak256(abi.encodePacked(account));\n        adminRestriction.signAddAdmin(adminHash, account, msg.sender);\n    }\n\n    function signRemoveAdminRestriction(address account) public onlyRestrictionAdmin {\n        bytes32 adminHash = keccak256(abi.encodePacked(account));\n        adminRestriction.signRemoveAdmin(adminHash, account, msg.sender);\n    }\n\n    function signUpdateTransferLimit(address account, uint256 _newLimit) public onlyRestrictionAdmin {\n        bytes32 transferHash = keccak256(abi.encodePacked(account, _newLimit));\n        adminRestriction.signTransferLimit(transferHash, account, _newLimit, msg.sender);\n    }\n\n    function getUserRoles() public view returns (bool isAdminMint, bool isAdminRestriction) {\n        address account = msg.sender;\n        return (adminMint.isAdmin(account), adminRestriction.isAdmin(account));\n    }\n}",
  "sourcePath": "/app/contracts/BDAToken.sol",
  "compiler": {
    "name": "solc",
    "version": "0.8.20+commit.a1b79de6.Emscripten.clang"
  },
  "schemaVersion": "3.4.16",
  "updatedAt": "2024-04-29T10:01:42.661Z",
  "networkType": "ethereum",
  "devdoc": {
    "errors": {
      "ERC20ExceededCap(uint256,uint256)": [
        {
          "details": "Total supply cap has been exceeded."
        }
      ],
      "ERC20InsufficientAllowance(address,uint256,uint256)": [
        {
          "details": "Indicates a failure with the `spender`s `allowance`. Used in transfers.",
          "params": {
            "allowance": "Amount of tokens a `spender` is allowed to operate with.",
            "needed": "Minimum amount required to perform a transfer.",
            "spender": "Address that may be allowed to operate on tokens without being their owner."
          }
        }
      ],
      "ERC20InsufficientBalance(address,uint256,uint256)": [
        {
          "details": "Indicates an error related to the current `balance` of a `sender`. Used in transfers.",
          "params": {
            "balance": "Current balance for the interacting account.",
            "needed": "Minimum amount required to perform a transfer.",
            "sender": "Address whose tokens are being transferred."
          }
        }
      ],
      "ERC20InvalidApprover(address)": [
        {
          "details": "Indicates a failure with the `approver` of a token to be approved. Used in approvals.",
          "params": {
            "approver": "Address initiating an approval operation."
          }
        }
      ],
      "ERC20InvalidCap(uint256)": [
        {
          "details": "The supplied cap is not a valid cap."
        }
      ],
      "ERC20InvalidReceiver(address)": [
        {
          "details": "Indicates a failure with the token `receiver`. Used in transfers.",
          "params": {
            "receiver": "Address to which tokens are being transferred."
          }
        }
      ],
      "ERC20InvalidSender(address)": [
        {
          "details": "Indicates a failure with the token `sender`. Used in transfers.",
          "params": {
            "sender": "Address whose tokens are being transferred."
          }
        }
      ],
      "ERC20InvalidSpender(address)": [
        {
          "details": "Indicates a failure with the `spender` to be approved. Used in approvals.",
          "params": {
            "spender": "Address that may be allowed to operate on tokens without being their owner."
          }
        }
      ]
    },
    "events": {
      "Approval(address,address,uint256)": {
        "details": "Emitted when the allowance of a `spender` for an `owner` is set by a call to {approve}. `value` is the new allowance."
      },
      "Transfer(address,address,uint256)": {
        "details": "Emitted when `value` tokens are moved from one account (`from`) to another (`to`). Note that `value` may be zero."
      }
    },
    "kind": "dev",
    "methods": {
      "allowance(address,address)": {
        "details": "See {IERC20-allowance}."
      },
      "approve(address,uint256)": {
        "details": "See {IERC20-approve}. NOTE: If `value` is the maximum `uint256`, the allowance is not updated on `transferFrom`. This is semantically equivalent to an infinite approval. Requirements: - `spender` cannot be the zero address."
      },
      "balanceOf(address)": {
        "details": "See {IERC20-balanceOf}."
      },
      "cap()": {
        "details": "Returns the cap on the token's total supply."
      },
      "decimals()": {
        "details": "Returns the number of decimals used to get its user representation. For example, if `decimals` equals `2`, a balance of `505` tokens should be displayed to a user as `5.05` (`505 / 10 ** 2`). Tokens usually opt for a value of 18, imitating the relationship between Ether and Wei. This is the default value returned by this function, unless it's overridden. NOTE: This information is only used for _display_ purposes: it in no way affects any of the arithmetic of the contract, including {IERC20-balanceOf} and {IERC20-transfer}."
      },
      "name()": {
        "details": "Returns the name of the token."
      },
      "signMint(address[],uint256[])": {
        "details": "Function to approve minting of more than mintMax tokens need consensus from more than half of the mint admins",
        "params": {
          "accounts": "The addresses that will receive the minted tokens",
          "amounts": "The amounts of tokens that will be minted"
        }
      },
      "symbol()": {
        "details": "Returns the symbol of the token, usually a shorter version of the name."
      },
      "totalSupply()": {
        "details": "See {IERC20-totalSupply}."
      },
      "transferFrom(address,address,uint256)": {
        "details": "See {IERC20-transferFrom}. Emits an {Approval} event indicating the updated allowance. This is not required by the EIP. See the note at the beginning of {ERC20}. NOTE: Does not update the allowance if the current allowance is the maximum `uint256`. Requirements: - `from` and `to` cannot be the zero address. - `from` must have a balance of at least `value`. - the caller must have allowance for ``from``'s tokens of at least `value`."
      }
    },
    "version": 1
  },
  "userdoc": {
    "kind": "user",
    "methods": {},
    "version": 1
  }
}