{
  "contractName": "BDAToken",
  "abi": [
    {
      "inputs": [
        {
          "internalType": "string",
          "name": "name",
          "type": "string"
        },
        {
          "internalType": "string",
          "name": "symbol",
          "type": "string"
        },
        {
          "internalType": "uint256",
          "name": "tmax",
          "type": "uint256"
        },
        {
          "internalType": "uint256",
          "name": "_cap",
          "type": "uint256"
        },
        {
          "internalType": "uint256",
          "name": "_transferLimit",
          "type": "uint256"
        }
      ],
      "stateMutability": "nonpayable",
      "type": "constructor"
    },
    {
      "inputs": [
        {
          "internalType": "uint256",
          "name": "increasedSupply",
          "type": "uint256"
        },
        {
          "internalType": "uint256",
          "name": "cap",
          "type": "uint256"
        }
      ],
      "name": "ERC20ExceededCap",
      "type": "error"
    },
    {
      "inputs": [
        {
          "internalType": "address",
          "name": "spender",
          "type": "address"
        },
        {
          "internalType": "uint256",
          "name": "allowance",
          "type": "uint256"
        },
        {
          "internalType": "uint256",
          "name": "needed",
          "type": "uint256"
        }
      ],
      "name": "ERC20InsufficientAllowance",
      "type": "error"
    },
    {
      "inputs": [
        {
          "internalType": "address",
          "name": "sender",
          "type": "address"
        },
        {
          "internalType": "uint256",
          "name": "balance",
          "type": "uint256"
        },
        {
          "internalType": "uint256",
          "name": "needed",
          "type": "uint256"
        }
      ],
      "name": "ERC20InsufficientBalance",
      "type": "error"
    },
    {
      "inputs": [
        {
          "internalType": "address",
          "name": "approver",
          "type": "address"
        }
      ],
      "name": "ERC20InvalidApprover",
      "type": "error"
    },
    {
      "inputs": [
        {
          "internalType": "uint256",
          "name": "cap",
          "type": "uint256"
        }
      ],
      "name": "ERC20InvalidCap",
      "type": "error"
    },
    {
      "inputs": [
        {
          "internalType": "address",
          "name": "receiver",
          "type": "address"
        }
      ],
      "name": "ERC20InvalidReceiver",
      "type": "error"
    },
    {
      "inputs": [
        {
          "internalType": "address",
          "name": "sender",
          "type": "address"
        }
      ],
      "name": "ERC20InvalidSender",
      "type": "error"
    },
    {
      "inputs": [
        {
          "internalType": "address",
          "name": "spender",
          "type": "address"
        }
      ],
      "name": "ERC20InvalidSpender",
      "type": "error"
    },
    {
      "anonymous": false,
      "inputs": [
        {
          "indexed": true,
          "internalType": "address",
          "name": "owner",
          "type": "address"
        },
        {
          "indexed": true,
          "internalType": "address",
          "name": "spender",
          "type": "address"
        },
        {
          "indexed": false,
          "internalType": "uint256",
          "name": "value",
          "type": "uint256"
        }
      ],
      "name": "Approval",
      "type": "event"
    },
    {
      "anonymous": false,
      "inputs": [
        {
          "indexed": true,
          "internalType": "address",
          "name": "to",
          "type": "address"
        },
        {
          "indexed": false,
          "internalType": "uint256",
          "name": "amount",
          "type": "uint256"
        }
      ],
      "name": "Mint",
      "type": "event"
    },
    {
      "anonymous": false,
      "inputs": [
        {
          "indexed": true,
          "internalType": "address",
          "name": "account",
          "type": "address"
        },
        {
          "indexed": true,
          "internalType": "address",
          "name": "signer",
          "type": "address"
        }
      ],
      "name": "SignAddingAdminMint",
      "type": "event"
    },
    {
      "anonymous": false,
      "inputs": [
        {
          "indexed": true,
          "internalType": "address",
          "name": "account",
          "type": "address"
        },
        {
          "indexed": true,
          "internalType": "address",
          "name": "signer",
          "type": "address"
        }
      ],
      "name": "SignRemovingAdminMint",
      "type": "event"
    },
    {
      "anonymous": false,
      "inputs": [
        {
          "indexed": true,
          "internalType": "address",
          "name": "from",
          "type": "address"
        },
        {
          "indexed": true,
          "internalType": "address",
          "name": "to",
          "type": "address"
        },
        {
          "indexed": false,
          "internalType": "uint256",
          "name": "value",
          "type": "uint256"
        }
      ],
      "name": "Transfer",
      "type": "event"
    },
    {
      "anonymous": false,
      "inputs": [
        {
          "indexed": true,
          "internalType": "address",
          "name": "from",
          "type": "address"
        },
        {
          "indexed": true,
          "internalType": "address",
          "name": "to",
          "type": "address"
        },
        {
          "indexed": false,
          "internalType": "uint256",
          "name": "amount",
          "type": "uint256"
        },
        {
          "indexed": false,
          "internalType": "uint256",
          "name": "limit",
          "type": "uint256"
        }
      ],
      "name": "TransferBDAToken",
      "type": "event"
    },
    {
      "inputs": [],
      "name": "adminMint",
      "outputs": [
        {
          "internalType": "contract AdminMint",
          "name": "",
          "type": "address"
        }
      ],
      "stateMutability": "view",
      "type": "function",
      "constant": true
    },
    {
      "inputs": [],
      "name": "adminRestriction",
      "outputs": [
        {
          "internalType": "contract AdminRestriction",
          "name": "",
          "type": "address"
        }
      ],
      "stateMutability": "view",
      "type": "function",
      "constant": true
    },
    {
      "inputs": [
        {
          "internalType": "address",
          "name": "owner",
          "type": "address"
        },
        {
          "internalType": "address",
          "name": "spender",
          "type": "address"
        }
      ],
      "name": "allowance",
      "outputs": [
        {
          "internalType": "uint256",
          "name": "",
          "type": "uint256"
        }
      ],
      "stateMutability": "view",
      "type": "function",
      "constant": true
    },
    {
      "inputs": [
        {
          "internalType": "address",
          "name": "spender",
          "type": "address"
        },
        {
          "internalType": "uint256",
          "name": "value",
          "type": "uint256"
        }
      ],
      "name": "approve",
      "outputs": [
        {
          "internalType": "bool",
          "name": "",
          "type": "bool"
        }
      ],
      "stateMutability": "nonpayable",
      "type": "function"
    },
    {
      "inputs": [
        {
          "internalType": "address",
          "name": "account",
          "type": "address"
        }
      ],
      "name": "balanceOf",
      "outputs": [
        {
          "internalType": "uint256",
          "name": "",
          "type": "uint256"
        }
      ],
      "stateMutability": "view",
      "type": "function",
      "constant": true
    },
    {
      "inputs": [],
      "name": "cap",
      "outputs": [
        {
          "internalType": "uint256",
          "name": "",
          "type": "uint256"
        }
      ],
      "stateMutability": "view",
      "type": "function",
      "constant": true
    },
    {
      "inputs": [],
      "name": "decimals",
      "outputs": [
        {
          "internalType": "uint8",
          "name": "",
          "type": "uint8"
        }
      ],
      "stateMutability": "view",
      "type": "function",
      "constant": true
    },
    {
      "inputs": [],
      "name": "name",
      "outputs": [
        {
          "internalType": "string",
          "name": "",
          "type": "string"
        }
      ],
      "stateMutability": "view",
      "type": "function",
      "constant": true
    },
    {
      "inputs": [],
      "name": "symbol",
      "outputs": [
        {
          "internalType": "string",
          "name": "",
          "type": "string"
        }
      ],
      "stateMutability": "view",
      "type": "function",
      "constant": true
    },
    {
      "inputs": [],
      "name": "totalSupply",
      "outputs": [
        {
          "internalType": "uint256",
          "name": "",
          "type": "uint256"
        }
      ],
      "stateMutability": "view",
      "type": "function",
      "constant": true
    },
    {
      "inputs": [
        {
          "internalType": "address",
          "name": "from",
          "type": "address"
        },
        {
          "internalType": "address",
          "name": "to",
          "type": "address"
        },
        {
          "internalType": "uint256",
          "name": "value",
          "type": "uint256"
        }
      ],
      "name": "transferFrom",
      "outputs": [
        {
          "internalType": "bool",
          "name": "",
          "type": "bool"
        }
      ],
      "stateMutability": "nonpayable",
      "type": "function"
    },
    {
      "inputs": [],
      "name": "getAdminMint",
      "outputs": [
        {
          "internalType": "address[]",
          "name": "",
          "type": "address[]"
        }
      ],
      "stateMutability": "view",
      "type": "function",
      "constant": true
    },
    {
      "inputs": [],
      "name": "getAdminRestriction",
      "outputs": [
        {
          "internalType": "address[]",
          "name": "",
          "type": "address[]"
        }
      ],
      "stateMutability": "view",
      "type": "function",
      "constant": true
    },
    {
      "inputs": [
        {
          "internalType": "address[]",
          "name": "to",
          "type": "address[]"
        },
        {
          "internalType": "uint256[]",
          "name": "amount",
          "type": "uint256[]"
        }
      ],
      "name": "mint",
      "outputs": [],
      "stateMutability": "nonpayable",
      "type": "function"
    },
    {
      "inputs": [],
      "name": "burnAccount",
      "outputs": [],
      "stateMutability": "nonpayable",
      "type": "function"
    },
    {
      "inputs": [
        {
          "internalType": "address",
          "name": "to",
          "type": "address"
        },
        {
          "internalType": "uint256",
          "name": "amount",
          "type": "uint256"
        }
      ],
      "name": "transfer",
      "outputs": [
        {
          "internalType": "bool",
          "name": "",
          "type": "bool"
        }
      ],
      "stateMutability": "nonpayable",
      "type": "function"
    },
    {
      "inputs": [
        {
          "internalType": "address[]",
          "name": "accounts",
          "type": "address[]"
        },
        {
          "internalType": "uint256[]",
          "name": "amounts",
          "type": "uint256[]"
        }
      ],
      "name": "signMint",
      "outputs": [],
      "stateMutability": "nonpayable",
      "type": "function"
    },
    {
      "inputs": [
        {
          "internalType": "address",
          "name": "account",
          "type": "address"
        }
      ],
      "name": "signAddAdminMint",
      "outputs": [],
      "stateMutability": "nonpayable",
      "type": "function"
    },
    {
      "inputs": [
        {
          "internalType": "address",
          "name": "account",
          "type": "address"
        }
      ],
      "name": "signRemoveAdminMint",
      "outputs": [],
      "stateMutability": "nonpayable",
      "type": "function"
    },
    {
      "inputs": [
        {
          "internalType": "address",
          "name": "account",
          "type": "address"
        }
      ],
      "name": "signAddAdminRestriction",
      "outputs": [],
      "stateMutability": "nonpayable",
      "type": "function"
    },
    {
      "inputs": [
        {
          "internalType": "address",
          "name": "account",
          "type": "address"
        }
      ],
      "name": "signRemoveAdminRestriction",
      "outputs": [],
      "stateMutability": "nonpayable",
      "type": "function"
    },
    {
      "inputs": [
        {
          "internalType": "address",
          "name": "account",
          "type": "address"
        },
        {
          "internalType": "uint256",
          "name": "_newLimit",
          "type": "uint256"
        }
      ],
      "name": "signUpdateTransferLimit",
      "outputs": [],
      "stateMutability": "nonpayable",
      "type": "function"
    },
    {
      "inputs": [],
      "name": "getUserRoles",
      "outputs": [
        {
          "internalType": "bool",
          "name": "isAdminMint",
          "type": "bool"
        },
        {
          "internalType": "bool",
          "name": "isAdminRestriction",
          "type": "bool"
        }
      ],
      "stateMutability": "view",
      "type": "function",
      "constant": true
    },
    {
      "inputs": [],
      "name": "getMintedToday",
      "outputs": [
        {
          "internalType": "uint256",
          "name": "",
          "type": "uint256"
        }
      ],
      "stateMutability": "view",
      "type": "function",
      "constant": true
    },
    {
      "inputs": [],
      "name": "getMintLimit",
      "outputs": [
        {
          "internalType": "uint256",
          "name": "",
          "type": "uint256"
        }
      ],
      "stateMutability": "view",
      "type": "function",
      "constant": true
    },
    {
      "inputs": [],
      "name": "getTransferedToday",
      "outputs": [
        {
          "internalType": "uint256",
          "name": "",
          "type": "uint256"
        }
      ],
      "stateMutability": "view",
      "type": "function",
      "constant": true
    },
    {
      "inputs": [
        {
          "internalType": "address",
          "name": "account",
          "type": "address"
        }
      ],
      "name": "getTransferLimit",
      "outputs": [
        {
          "internalType": "uint256",
          "name": "",
          "type": "uint256"
        }
      ],
      "stateMutability": "view",
      "type": "function",
      "constant": true
    },
    {
      "inputs": [],
      "name": "getTransferLimit",
      "outputs": [
        {
          "internalType": "uint256",
          "name": "",
          "type": "uint256"
        }
      ],
      "stateMutability": "view",
      "type": "function",
      "constant": true
    }
  ],
  "bytecode": "0x60a060405234801562000010575f80fd5b50604051620066c1380380620066c1833981810160405281019062000036919062000381565b81858581600390816200004a919062000671565b5080600490816200005c919062000671565b5050505f8103620000a6575f6040517f392e1e270000000000000000000000000000000000000000000000000000000081526004016200009d919062000796565b60405180910390fd5b8060808181525050503383604051620000bf90620001a8565b620000cc92919062000805565b604051809103905ff080158015620000e6573d5f803e3d5ffd5b5060055f6101000a81548173ffffffffffffffffffffffffffffffffffffffff021916908373ffffffffffffffffffffffffffffffffffffffff16021790555033816040516200013690620001b6565b6200014392919062000805565b604051809103905ff0801580156200015d573d5f803e3d5ffd5b5060065f6101000a81548173ffffffffffffffffffffffffffffffffffffffff021916908373ffffffffffffffffffffffffffffffffffffffff160217905550505050505062000830565b6113d98062003eb083390190565b611438806200528983390190565b5f604051905090565b5f80fd5b5f80fd5b5f80fd5b5f80fd5b5f601f19601f8301169050919050565b7f4e487b71000000000000000000000000000000000000000000000000000000005f52604160045260245ffd5b6200022582620001dd565b810181811067ffffffffffffffff82111715620002475762000246620001ed565b5b80604052505050565b5f6200025b620001c4565b90506200026982826200021a565b919050565b5f67ffffffffffffffff8211156200028b576200028a620001ed565b5b6200029682620001dd565b9050602081019050919050565b5f5b83811015620002c2578082015181840152602081019050620002a5565b5f8484015250505050565b5f620002e3620002dd846200026e565b62000250565b905082815260208101848484011115620003025762000301620001d9565b5b6200030f848285620002a3565b509392505050565b5f82601f8301126200032e576200032d620001d5565b5b815162000340848260208601620002cd565b91505092915050565b5f819050919050565b6200035d8162000349565b811462000368575f80fd5b50565b5f815190506200037b8162000352565b92915050565b5f805f805f60a086880312156200039d576200039c620001cd565b5b5f86015167ffffffffffffffff811115620003bd57620003bc620001d1565b5b620003cb8882890162000317565b955050602086015167ffffffffffffffff811115620003ef57620003ee620001d1565b5b620003fd8882890162000317565b945050604062000410888289016200036b565b935050606062000423888289016200036b565b925050608062000436888289016200036b565b9150509295509295909350565b5f81519050919050565b7f4e487b71000000000000000000000000000000000000000000000000000000005f52602260045260245ffd5b5f60028204905060018216806200049257607f821691505b602082108103620004a857620004a76200044d565b5b50919050565b5f819050815f5260205f209050919050565b5f6020601f8301049050919050565b5f82821b905092915050565b5f600883026200050c7fffffffffffffffffffffffffffffffffffffffffffffffffffffffffffffffff82620004cf565b620005188683620004cf565b95508019841693508086168417925050509392505050565b5f819050919050565b5f62000559620005536200054d8462000349565b62000530565b62000349565b9050919050565b5f819050919050565b620005748362000539565b6200058c620005838262000560565b848454620004db565b825550505050565b5f90565b620005a262000594565b620005af81848462000569565b505050565b5b81811015620005d657620005ca5f8262000598565b600181019050620005b5565b5050565b601f8211156200062557620005ef81620004ae565b620005fa84620004c0565b810160208510156200060a578190505b620006226200061985620004c0565b830182620005b4565b50505b505050565b5f82821c905092915050565b5f620006475f19846008026200062a565b1980831691505092915050565b5f62000661838362000636565b9150826002028217905092915050565b6200067c8262000443565b67ffffffffffffffff811115620006985762000697620001ed565b5b620006a482546200047a565b620006b1828285620005da565b5f60209050601f831160018114620006e7575f8415620006d2578287015190505b620006de858262000654565b8655506200074d565b601f198416620006f786620004ae565b5f5b828110156200072057848901518255600182019150602085019450602081019050620006f9565b868310156200074057848901516200073c601f89168262000636565b8355505b6001600288020188555050505b505050505050565b5f819050919050565b5f6200077e62000778620007728462000755565b62000530565b62000349565b9050919050565b62000790816200075e565b82525050565b5f602082019050620007ab5f83018462000785565b92915050565b5f73ffffffffffffffffffffffffffffffffffffffff82169050919050565b5f620007dc82620007b1565b9050919050565b620007ee81620007d0565b82525050565b620007ff8162000349565b82525050565b5f6040820190506200081a5f830185620007e3565b620008296020830184620007f4565b9392505050565b608051613667620008495f395f6107b001526136675ff3fe608060405234801561000f575f80fd5b50600436106101c2575f3560e01c80636a2ae983116100f757806395d89b4111610095578063c6ab6e2b1161006f578063c6ab6e2b146104d5578063dd62ed3e146104f1578063e467f7e014610521578063e8d31f961461053d576101c2565b806395d89b411461046b57806396ac288c14610489578063a9059cbb146104a5576101c2565b80637f4d4f0d116100d15780637f4d4f0d146103f5578063849b405114610411578063895fc7881461042f578063905eac5a1461044d576101c2565b80636a2ae983146103885780636ac0be52146103a657806370a08231146103c5576101c2565b8063327b32b8116101645780634a4f3cce1161013e5780634a4f3cce1461030057806356bda4a21461031e578063595e44671461033c5780635edf9e6114610358576101c2565b8063327b32b8146102bc578063355274ea146102c6578063476c74cb146102e4576101c2565b806318eaaebb116101a057806318eaaebb1461023257806323b872dd14610250578063274173c314610280578063313ce5671461029e576101c2565b806306fdde03146101c6578063095ea7b3146101e457806318160ddd14610214575b5f80fd5b6101ce610559565b6040516101db91906126c9565b60405180910390f35b6101fe60048036038101906101f99190612787565b6105e9565b60405161020b91906127df565b60405180910390f35b61021c61060b565b6040516102299190612807565b60405180910390f35b61023a610614565b60405161024791906128d7565b60405180910390f35b61026a600480360381019061026591906128f7565b6106ac565b60405161027791906127df565b60405180910390f35b6102886106da565b6040516102959190612807565b60405180910390f35b6102a661077e565b6040516102b39190612962565b60405180910390f35b6102c4610786565b005b6102ce6107ad565b6040516102db9190612807565b60405180910390f35b6102fe60048036038101906102f9919061297b565b6107d4565b005b610308610965565b6040516103159190612a01565b60405180910390f35b61032661098a565b6040516103339190612807565b60405180910390f35b61035660048036038101906103519190612c1a565b610a1e565b005b610372600480360381019061036d919061297b565b610c26565b60405161037f9190612807565b60405180910390f35b610390610cc7565b60405161039d9190612807565b60405180910390f35b6103ae610d6b565b6040516103bc929190612c90565b60405180910390f35b6103df60048036038101906103da919061297b565b610eac565b6040516103ec9190612807565b60405180910390f35b61040f600480360381019061040a919061297b565b610ef1565b005b6104196110dc565b60405161042691906128d7565b60405180910390f35b610437611174565b6040516104449190612cd7565b60405180910390f35b610455611199565b6040516104629190612807565b60405180910390f35b61047361123d565b60405161048091906126c9565b60405180910390f35b6104a3600480360381019061049e9190612787565b6112cd565b005b6104bf60048036038101906104ba9190612787565b611463565b6040516104cc91906127df565b60405180910390f35b6104ef60048036038101906104ea919061297b565b611674565b005b61050b60048036038101906105069190612cf0565b611805565b6040516105189190612807565b60405180910390f35b61053b60048036038101906105369190612c1a565b611887565b005b6105576004803603810190610552919061297b565b611d30565b005b60606003805461056890612d5b565b80601f016020809104026020016040519081016040528092919081815260200182805461059490612d5b565b80156105df5780601f106105b6576101008083540402835291602001916105df565b820191905f5260205f20905b8154815290600101906020018083116105c257829003601f168201915b5050505050905090565b5f806105f3611f1b565b9050610600818585611f22565b600191505092915050565b5f600254905090565b606060055f9054906101000a900473ffffffffffffffffffffffffffffffffffffffff1673ffffffffffffffffffffffffffffffffffffffff166331ae450b6040518163ffffffff1660e01b81526004015f60405180830381865afa15801561067f573d5f803e3d5ffd5b505050506040513d5f823e3d601f19601f820116820180604052508101906106a79190612e34565b905090565b5f806106b6611f1b565b90506106c3858285611f34565b6106ce858585611fc6565b60019150509392505050565b5f8033905060055f9054906101000a900473ffffffffffffffffffffffffffffffffffffffff1673ffffffffffffffffffffffffffffffffffffffff166363b266ba826040518263ffffffff1660e01b81526004016107399190612e8a565b602060405180830381865afa158015610754573d5f803e3d5ffd5b505050506040513d601f19601f820116820180604052508101906107789190612eb7565b91505090565b5f6012905090565b5f61079033610eac565b90505f810361079f57506107ab565b6107a933826120b6565b505b565b5f7f0000000000000000000000000000000000000000000000000000000000000000905090565b60065f9054906101000a900473ffffffffffffffffffffffffffffffffffffffff1673ffffffffffffffffffffffffffffffffffffffff166324d7806c336040518263ffffffff1660e01b815260040161082e9190612e8a565b602060405180830381865afa158015610849573d5f803e3d5ffd5b505050506040513d601f19601f8201168201806040525081019061086d9190612f0c565b6108ac576040517f08c379a00000000000000000000000000000000000000000000000000000000081526004016108a390612fa7565b60405180910390fd5b5f816040516020016108be919061300a565b60405160208183030381529060405280519060200120905060065f9054906101000a900473ffffffffffffffffffffffffffffffffffffffff1673ffffffffffffffffffffffffffffffffffffffff1663956e8fac8284336040518463ffffffff1660e01b81526004016109349392919061303c565b5f604051808303815f87803b15801561094b575f80fd5b505af115801561095d573d5f803e3d5ffd5b505050505050565b60065f9054906101000a900473ffffffffffffffffffffffffffffffffffffffff1681565b5f60055f9054906101000a900473ffffffffffffffffffffffffffffffffffffffff1673ffffffffffffffffffffffffffffffffffffffff166356bda4a26040518163ffffffff1660e01b8152600401602060405180830381865afa1580156109f5573d5f803e3d5ffd5b505050506040513d601f19601f82011682018060405250810190610a199190612eb7565b905090565b60055f9054906101000a900473ffffffffffffffffffffffffffffffffffffffff1673ffffffffffffffffffffffffffffffffffffffff166324d7806c336040518263ffffffff1660e01b8152600401610a789190612e8a565b602060405180830381865afa158015610a93573d5f803e3d5ffd5b505050506040513d601f19601f82011682018060405250810190610ab79190612f0c565b610af6576040517f08c379a0000000000000000000000000000000000000000000000000000000008152600401610aed906130bb565b60405180910390fd5b5f8282604051602001610b0a929190613216565b60405160208183030381529060405280519060200120905060055f9054906101000a900473ffffffffffffffffffffffffffffffffffffffff1673ffffffffffffffffffffffffffffffffffffffff16636f5fbcbf82336040518363ffffffff1660e01b8152600401610b7e929190613239565b6020604051808303815f875af1158015610b9a573d5f803e3d5ffd5b505050506040513d601f19601f82011682018060405250810190610bbe9190612f0c565b15610c21575f5b8351811015610c1f57610c0c848281518110610be457610be3613260565b5b6020026020010151848381518110610bff57610bfe613260565b5b6020026020010151612135565b8080610c17906132ba565b915050610bc5565b505b505050565b5f60065f9054906101000a900473ffffffffffffffffffffffffffffffffffffffff1673ffffffffffffffffffffffffffffffffffffffff16635edf9e61836040518263ffffffff1660e01b8152600401610c819190612e8a565b602060405180830381865afa158015610c9c573d5f803e3d5ffd5b505050506040513d601f19601f82011682018060405250810190610cc09190612eb7565b9050919050565b5f8033905060065f9054906101000a900473ffffffffffffffffffffffffffffffffffffffff1673ffffffffffffffffffffffffffffffffffffffff16635edf9e61826040518263ffffffff1660e01b8152600401610d269190612e8a565b602060405180830381865afa158015610d41573d5f803e3d5ffd5b505050506040513d601f19601f82011682018060405250810190610d659190612eb7565b91505090565b5f805f33905060055f9054906101000a900473ffffffffffffffffffffffffffffffffffffffff1673ffffffffffffffffffffffffffffffffffffffff166324d7806c826040518263ffffffff1660e01b8152600401610dcb9190612e8a565b602060405180830381865afa158015610de6573d5f803e3d5ffd5b505050506040513d601f19601f82011682018060405250810190610e0a9190612f0c565b60065f9054906101000a900473ffffffffffffffffffffffffffffffffffffffff1673ffffffffffffffffffffffffffffffffffffffff166324d7806c836040518263ffffffff1660e01b8152600401610e649190612e8a565b602060405180830381865afa158015610e7f573d5f803e3d5ffd5b505050506040513d601f19601f82011682018060405250810190610ea39190612f0c565b92509250509091565b5f805f8373ffffffffffffffffffffffffffffffffffffffff1673ffffffffffffffffffffffffffffffffffffffff1681526020019081526020015f20549050919050565b60055f9054906101000a900473ffffffffffffffffffffffffffffffffffffffff1673ffffffffffffffffffffffffffffffffffffffff166324d7806c336040518263ffffffff1660e01b8152600401610f4b9190612e8a565b602060405180830381865afa158015610f66573d5f803e3d5ffd5b505050506040513d601f19601f82011682018060405250810190610f8a9190612f0c565b610fc9576040517f08c379a0000000000000000000000000000000000000000000000000000000008152600401610fc0906130bb565b60405180910390fd5b5f81604051602001610fdb919061300a565b60405160208183030381529060405280519060200120905060055f9054906101000a900473ffffffffffffffffffffffffffffffffffffffff1673ffffffffffffffffffffffffffffffffffffffff1663956e8fac8284336040518463ffffffff1660e01b81526004016110519392919061303c565b5f604051808303815f87803b158015611068575f80fd5b505af115801561107a573d5f803e3d5ffd5b505050503373ffffffffffffffffffffffffffffffffffffffff168273ffffffffffffffffffffffffffffffffffffffff167f7830a60768a9294b36bc5c30db6fa2057db2fa35b90449078bccbcbadef54a6860405160405180910390a35050565b606060065f9054906101000a900473ffffffffffffffffffffffffffffffffffffffff1673ffffffffffffffffffffffffffffffffffffffff166331ae450b6040518163ffffffff1660e01b81526004015f60405180830381865afa158015611147573d5f803e3d5ffd5b505050506040513d5f823e3d601f19601f8201168201806040525081019061116f9190612e34565b905090565b60055f9054906101000a900473ffffffffffffffffffffffffffffffffffffffff1681565b5f8033905060065f9054906101000a900473ffffffffffffffffffffffffffffffffffffffff1673ffffffffffffffffffffffffffffffffffffffff1663685026a9826040518263ffffffff1660e01b81526004016111f89190612e8a565b602060405180830381865afa158015611213573d5f803e3d5ffd5b505050506040513d601f19601f820116820180604052508101906112379190612eb7565b91505090565b60606004805461124c90612d5b565b80601f016020809104026020016040519081016040528092919081815260200182805461127890612d5b565b80156112c35780601f1061129a576101008083540402835291602001916112c3565b820191905f5260205f20905b8154815290600101906020018083116112a657829003601f168201915b5050505050905090565b60065f9054906101000a900473ffffffffffffffffffffffffffffffffffffffff1673ffffffffffffffffffffffffffffffffffffffff166324d7806c336040518263ffffffff1660e01b81526004016113279190612e8a565b602060405180830381865afa158015611342573d5f803e3d5ffd5b505050506040513d601f19601f820116820180604052508101906113669190612f0c565b6113a5576040517f08c379a000000000000000000000000000000000000000000000000000000000815260040161139c90612fa7565b60405180910390fd5b5f82826040516020016113b9929190613321565b60405160208183030381529060405280519060200120905060065f9054906101000a900473ffffffffffffffffffffffffffffffffffffffff1673ffffffffffffffffffffffffffffffffffffffff1663537ca041828585336040518563ffffffff1660e01b8152600401611431949392919061334c565b5f604051808303815f87803b158015611448575f80fd5b505af115801561145a573d5f803e3d5ffd5b50505050505050565b5f8060065f9054906101000a900473ffffffffffffffffffffffffffffffffffffffff1673ffffffffffffffffffffffffffffffffffffffff16635edf9e61336040518263ffffffff1660e01b81526004016114bf9190612e8a565b602060405180830381865afa1580156114da573d5f803e3d5ffd5b505050506040513d601f19601f820116820180604052508101906114fe9190612eb7565b90508373ffffffffffffffffffffffffffffffffffffffff163373ffffffffffffffffffffffffffffffffffffffff167f1a35830374f9276cd7582fdb267d883a64cbaf31d0cbca68abd3b19529fce0db858460405161155f92919061338f565b60405180910390a35f73ffffffffffffffffffffffffffffffffffffffff168473ffffffffffffffffffffffffffffffffffffffff16036115d5576040517f08c379a00000000000000000000000000000000000000000000000000000000081526004016115cc90613426565b60405180910390fd5b60065f9054906101000a900473ffffffffffffffffffffffffffffffffffffffff1673ffffffffffffffffffffffffffffffffffffffff166354b4fdfd33856040518363ffffffff1660e01b8152600401611631929190613444565b5f604051808303815f87803b158015611648575f80fd5b505af115801561165a573d5f803e3d5ffd5b50505050611669338585611fc6565b600191505092915050565b60065f9054906101000a900473ffffffffffffffffffffffffffffffffffffffff1673ffffffffffffffffffffffffffffffffffffffff166324d7806c336040518263ffffffff1660e01b81526004016116ce9190612e8a565b602060405180830381865afa1580156116e9573d5f803e3d5ffd5b505050506040513d601f19601f8201168201806040525081019061170d9190612f0c565b61174c576040517f08c379a000000000000000000000000000000000000000000000000000000000815260040161174390612fa7565b60405180910390fd5b5f8160405160200161175e919061300a565b60405160208183030381529060405280519060200120905060065f9054906101000a900473ffffffffffffffffffffffffffffffffffffffff1673ffffffffffffffffffffffffffffffffffffffff166324c2be0e8284336040518463ffffffff1660e01b81526004016117d49392919061303c565b5f604051808303815f87803b1580156117eb575f80fd5b505af11580156117fd573d5f803e3d5ffd5b505050505050565b5f60015f8473ffffffffffffffffffffffffffffffffffffffff1673ffffffffffffffffffffffffffffffffffffffff1681526020019081526020015f205f8373ffffffffffffffffffffffffffffffffffffffff1673ffffffffffffffffffffffffffffffffffffffff1681526020019081526020015f2054905092915050565b60055f9054906101000a900473ffffffffffffffffffffffffffffffffffffffff1673ffffffffffffffffffffffffffffffffffffffff166324d7806c336040518263ffffffff1660e01b81526004016118e19190612e8a565b602060405180830381865afa1580156118fc573d5f803e3d5ffd5b505050506040513d601f19601f820116820180604052508101906119209190612f0c565b61195f576040517f08c379a0000000000000000000000000000000000000000000000000000000008152600401611956906130bb565b60405180910390fd5b80518251146119a3576040517f08c379a000000000000000000000000000000000000000000000000000000000815260040161199a906134b5565b60405180910390fd5b60055f9054906101000a900473ffffffffffffffffffffffffffffffffffffffff1673ffffffffffffffffffffffffffffffffffffffff166324d7806c336040518263ffffffff1660e01b81526004016119fd9190612e8a565b602060405180830381865afa158015611a18573d5f803e3d5ffd5b505050506040513d601f19601f82011682018060405250810190611a3c9190612f0c565b611a7b576040517f08c379a0000000000000000000000000000000000000000000000000000000008152600401611a72906130bb565b60405180910390fd5b5f805b8351811015611bb457828181518110611a9a57611a99613260565b5b602002602001015182611aad91906134d3565b915060055f9054906101000a900473ffffffffffffffffffffffffffffffffffffffff1673ffffffffffffffffffffffffffffffffffffffff1663f7cd7269848381518110611aff57611afe613260565b5b60200260200101516040518263ffffffff1660e01b8152600401611b239190612807565b602060405180830381865afa158015611b3e573d5f803e3d5ffd5b505050506040513d601f19601f82011682018060405250810190611b629190612f0c565b611ba1576040517f08c379a0000000000000000000000000000000000000000000000000000000008152600401611b9890613550565b60405180910390fd5b8080611bac906132ba565b915050611a7e565b50611bbd6107ad565b81611bc661060b565b611bd091906134d3565b1115611c11576040517f08c379a0000000000000000000000000000000000000000000000000000000008152600401611c08906135de565b60405180910390fd5b5f5b8351811015611d2a5760055f9054906101000a900473ffffffffffffffffffffffffffffffffffffffff1673ffffffffffffffffffffffffffffffffffffffff1663ee5277ca858381518110611c6c57611c6b613260565b5b6020026020010151858481518110611c8757611c86613260565b5b60200260200101516040518363ffffffff1660e01b8152600401611cac929190613444565b5f604051808303815f87803b158015611cc3575f80fd5b505af1158015611cd5573d5f803e3d5ffd5b50505050611d17848281518110611cef57611cee613260565b5b6020026020010151848381518110611d0a57611d09613260565b5b6020026020010151612135565b8080611d22906132ba565b915050611c13565b50505050565b60055f9054906101000a900473ffffffffffffffffffffffffffffffffffffffff1673ffffffffffffffffffffffffffffffffffffffff166324d7806c336040518263ffffffff1660e01b8152600401611d8a9190612e8a565b602060405180830381865afa158015611da5573d5f803e3d5ffd5b505050506040513d601f19601f82011682018060405250810190611dc99190612f0c565b611e08576040517f08c379a0000000000000000000000000000000000000000000000000000000008152600401611dff906130bb565b60405180910390fd5b5f81604051602001611e1a919061300a565b60405160208183030381529060405280519060200120905060055f9054906101000a900473ffffffffffffffffffffffffffffffffffffffff1673ffffffffffffffffffffffffffffffffffffffff166324c2be0e8284336040518463ffffffff1660e01b8152600401611e909392919061303c565b5f604051808303815f87803b158015611ea7575f80fd5b505af1158015611eb9573d5f803e3d5ffd5b505050503373ffffffffffffffffffffffffffffffffffffffff168273ffffffffffffffffffffffffffffffffffffffff167fe1d328e9144bdd6e3b482fab38aab3ce0734a15b5c72fde273ccb3507478010c60405160405180910390a35050565b5f33905090565b611f2f83838360016121b4565b505050565b5f611f3f8484611805565b90507fffffffffffffffffffffffffffffffffffffffffffffffffffffffffffffffff8114611fc05781811015611fb1578281836040517ffb8f41b2000000000000000000000000000000000000000000000000000000008152600401611fa8939291906135fc565b60405180910390fd5b611fbf84848484035f6121b4565b5b50505050565b5f73ffffffffffffffffffffffffffffffffffffffff168373ffffffffffffffffffffffffffffffffffffffff1603612036575f6040517f96c6fd1e00000000000000000000000000000000000000000000000000000000815260040161202d9190612e8a565b60405180910390fd5b5f73ffffffffffffffffffffffffffffffffffffffff168273ffffffffffffffffffffffffffffffffffffffff16036120a6575f6040517fec442f0500000000000000000000000000000000000000000000000000000000815260040161209d9190612e8a565b60405180910390fd5b6120b1838383612383565b505050565b5f73ffffffffffffffffffffffffffffffffffffffff168273ffffffffffffffffffffffffffffffffffffffff1603612126575f6040517f96c6fd1e00000000000000000000000000000000000000000000000000000000815260040161211d9190612e8a565b60405180910390fd5b612131825f83612383565b5050565b5f73ffffffffffffffffffffffffffffffffffffffff168273ffffffffffffffffffffffffffffffffffffffff16036121a5575f6040517fec442f0500000000000000000000000000000000000000000000000000000000815260040161219c9190612e8a565b60405180910390fd5b6121b05f8383612383565b5050565b5f73ffffffffffffffffffffffffffffffffffffffff168473ffffffffffffffffffffffffffffffffffffffff1603612224575f6040517fe602df0500000000000000000000000000000000000000000000000000000000815260040161221b9190612e8a565b60405180910390fd5b5f73ffffffffffffffffffffffffffffffffffffffff168373ffffffffffffffffffffffffffffffffffffffff1603612294575f6040517f94280d6200000000000000000000000000000000000000000000000000000000815260040161228b9190612e8a565b60405180910390fd5b8160015f8673ffffffffffffffffffffffffffffffffffffffff1673ffffffffffffffffffffffffffffffffffffffff1681526020019081526020015f205f8573ffffffffffffffffffffffffffffffffffffffff1673ffffffffffffffffffffffffffffffffffffffff1681526020019081526020015f2081905550801561237d578273ffffffffffffffffffffffffffffffffffffffff168473ffffffffffffffffffffffffffffffffffffffff167f8c5be1e5ebec7d5bd14f71427d1e84f3dd0314c0f7b2291e5b200ac8c7c3b925846040516123749190612807565b60405180910390a35b50505050565b61238e838383612426565b5f73ffffffffffffffffffffffffffffffffffffffff168373ffffffffffffffffffffffffffffffffffffffff1603612421575f6123ca6107ad565b90505f6123d561060b565b90508181111561241e5780826040517f9e79f85400000000000000000000000000000000000000000000000000000000815260040161241592919061338f565b60405180910390fd5b50505b505050565b5f73ffffffffffffffffffffffffffffffffffffffff168373ffffffffffffffffffffffffffffffffffffffff1603612476578060025f82825461246a91906134d3565b92505081905550612544565b5f805f8573ffffffffffffffffffffffffffffffffffffffff1673ffffffffffffffffffffffffffffffffffffffff1681526020019081526020015f20549050818110156124ff578381836040517fe450d38c0000000000000000000000000000000000000000000000000000000081526004016124f6939291906135fc565b60405180910390fd5b8181035f808673ffffffffffffffffffffffffffffffffffffffff1673ffffffffffffffffffffffffffffffffffffffff1681526020019081526020015f2081905550505b5f73ffffffffffffffffffffffffffffffffffffffff168273ffffffffffffffffffffffffffffffffffffffff160361258b578060025f82825403925050819055506125d5565b805f808473ffffffffffffffffffffffffffffffffffffffff1673ffffffffffffffffffffffffffffffffffffffff1681526020019081526020015f205f82825401925050819055505b8173ffffffffffffffffffffffffffffffffffffffff168373ffffffffffffffffffffffffffffffffffffffff167fddf252ad1be2c89b69c2b068fc378daa952ba7f163c4a11628f55a4df523b3ef836040516126329190612807565b60405180910390a3505050565b5f81519050919050565b5f82825260208201905092915050565b5f5b8381101561267657808201518184015260208101905061265b565b5f8484015250505050565b5f601f19601f8301169050919050565b5f61269b8261263f565b6126a58185612649565b93506126b5818560208601612659565b6126be81612681565b840191505092915050565b5f6020820190508181035f8301526126e18184612691565b905092915050565b5f604051905090565b5f80fd5b5f80fd5b5f73ffffffffffffffffffffffffffffffffffffffff82169050919050565b5f612723826126fa565b9050919050565b61273381612719565b811461273d575f80fd5b50565b5f8135905061274e8161272a565b92915050565b5f819050919050565b61276681612754565b8114612770575f80fd5b50565b5f813590506127818161275d565b92915050565b5f806040838503121561279d5761279c6126f2565b5b5f6127aa85828601612740565b92505060206127bb85828601612773565b9150509250929050565b5f8115159050919050565b6127d9816127c5565b82525050565b5f6020820190506127f25f8301846127d0565b92915050565b61280181612754565b82525050565b5f60208201905061281a5f8301846127f8565b92915050565b5f81519050919050565b5f82825260208201905092915050565b5f819050602082019050919050565b61285281612719565b82525050565b5f6128638383612849565b60208301905092915050565b5f602082019050919050565b5f61288582612820565b61288f818561282a565b935061289a8361283a565b805f5b838110156128ca5781516128b18882612858565b97506128bc8361286f565b92505060018101905061289d565b5085935050505092915050565b5f6020820190508181035f8301526128ef818461287b565b905092915050565b5f805f6060848603121561290e5761290d6126f2565b5b5f61291b86828701612740565b935050602061292c86828701612740565b925050604061293d86828701612773565b9150509250925092565b5f60ff82169050919050565b61295c81612947565b82525050565b5f6020820190506129755f830184612953565b92915050565b5f602082840312156129905761298f6126f2565b5b5f61299d84828501612740565b91505092915050565b5f819050919050565b5f6129c96129c46129bf846126fa565b6129a6565b6126fa565b9050919050565b5f6129da826129af565b9050919050565b5f6129eb826129d0565b9050919050565b6129fb816129e1565b82525050565b5f602082019050612a145f8301846129f2565b92915050565b5f80fd5b7f4e487b71000000000000000000000000000000000000000000000000000000005f52604160045260245ffd5b612a5482612681565b810181811067ffffffffffffffff82111715612a7357612a72612a1e565b5b80604052505050565b5f612a856126e9565b9050612a918282612a4b565b919050565b5f67ffffffffffffffff821115612ab057612aaf612a1e565b5b602082029050602081019050919050565b5f80fd5b5f612ad7612ad284612a96565b612a7c565b90508083825260208201905060208402830185811115612afa57612af9612ac1565b5b835b81811015612b235780612b0f8882612740565b845260208401935050602081019050612afc565b5050509392505050565b5f82601f830112612b4157612b40612a1a565b5b8135612b51848260208601612ac5565b91505092915050565b5f67ffffffffffffffff821115612b7457612b73612a1e565b5b602082029050602081019050919050565b5f612b97612b9284612b5a565b612a7c565b90508083825260208201905060208402830185811115612bba57612bb9612ac1565b5b835b81811015612be35780612bcf8882612773565b845260208401935050602081019050612bbc565b5050509392505050565b5f82601f830112612c0157612c00612a1a565b5b8135612c11848260208601612b85565b91505092915050565b5f8060408385031215612c3057612c2f6126f2565b5b5f83013567ffffffffffffffff811115612c4d57612c4c6126f6565b5b612c5985828601612b2d565b925050602083013567ffffffffffffffff811115612c7a57612c796126f6565b5b612c8685828601612bed565b9150509250929050565b5f604082019050612ca35f8301856127d0565b612cb060208301846127d0565b9392505050565b5f612cc1826129d0565b9050919050565b612cd181612cb7565b82525050565b5f602082019050612cea5f830184612cc8565b92915050565b5f8060408385031215612d0657612d056126f2565b5b5f612d1385828601612740565b9250506020612d2485828601612740565b9150509250929050565b7f4e487b71000000000000000000000000000000000000000000000000000000005f52602260045260245ffd5b5f6002820490506001821680612d7257607f821691505b602082108103612d8557612d84612d2e565b5b50919050565b5f81519050612d998161272a565b92915050565b5f612db1612dac84612a96565b612a7c565b90508083825260208201905060208402830185811115612dd457612dd3612ac1565b5b835b81811015612dfd5780612de98882612d8b565b845260208401935050602081019050612dd6565b5050509392505050565b5f82601f830112612e1b57612e1a612a1a565b5b8151612e2b848260208601612d9f565b91505092915050565b5f60208284031215612e4957612e486126f2565b5b5f82015167ffffffffffffffff811115612e6657612e656126f6565b5b612e7284828501612e07565b91505092915050565b612e8481612719565b82525050565b5f602082019050612e9d5f830184612e7b565b92915050565b5f81519050612eb18161275d565b92915050565b5f60208284031215612ecc57612ecb6126f2565b5b5f612ed984828501612ea3565b91505092915050565b612eeb816127c5565b8114612ef5575f80fd5b50565b5f81519050612f0681612ee2565b92915050565b5f60208284031215612f2157612f206126f2565b5b5f612f2e84828501612ef8565b91505092915050565b7f43616c6c6572206973206e6f742061207265737472696374696f6e2061646d695f8201527f6e00000000000000000000000000000000000000000000000000000000000000602082015250565b5f612f91602183612649565b9150612f9c82612f37565b604082019050919050565b5f6020820190508181035f830152612fbe81612f85565b9050919050565b5f8160601b9050919050565b5f612fdb82612fc5565b9050919050565b5f612fec82612fd1565b9050919050565b613004612fff82612719565b612fe2565b82525050565b5f6130158284612ff3565b60148201915081905092915050565b5f819050919050565b61303681613024565b82525050565b5f60608201905061304f5f83018661302d565b61305c6020830185612e7b565b6130696040830184612e7b565b949350505050565b7f43616c6c6572206973206e6f742061206d696e742061646d696e0000000000005f82015250565b5f6130a5601a83612649565b91506130b082613071565b602082019050919050565b5f6020820190508181035f8301526130d281613099565b9050919050565b5f81905092915050565b6130ec81612719565b82525050565b5f6130fd83836130e3565b60208301905092915050565b5f61311382612820565b61311d81856130d9565b93506131288361283a565b805f5b8381101561315857815161313f88826130f2565b975061314a8361286f565b92505060018101905061312b565b5085935050505092915050565b5f81519050919050565b5f81905092915050565b5f819050602082019050919050565b61319181612754565b82525050565b5f6131a28383613188565b60208301905092915050565b5f602082019050919050565b5f6131c482613165565b6131ce818561316f565b93506131d983613179565b805f5b838110156132095781516131f08882613197565b97506131fb836131ae565b9250506001810190506131dc565b5085935050505092915050565b5f6132218285613109565b915061322d82846131ba565b91508190509392505050565b5f60408201905061324c5f83018561302d565b6132596020830184612e7b565b9392505050565b7f4e487b71000000000000000000000000000000000000000000000000000000005f52603260045260245ffd5b7f4e487b71000000000000000000000000000000000000000000000000000000005f52601160045260245ffd5b5f6132c482612754565b91507fffffffffffffffffffffffffffffffffffffffffffffffffffffffffffffffff82036132f6576132f561328d565b5b600182019050919050565b5f819050919050565b61331b61331682612754565b613301565b82525050565b5f61332c8285612ff3565b60148201915061333c828461330a565b6020820191508190509392505050565b5f60808201905061335f5f83018761302d565b61336c6020830186612e7b565b61337960408301856127f8565b6133866060830184612e7b565b95945050505050565b5f6040820190506133a25f8301856127f8565b6133af60208301846127f8565b9392505050565b7f45524332303a207472616e7366657220746f20746865207a65726f20616464725f8201527f6573730000000000000000000000000000000000000000000000000000000000602082015250565b5f613410602383612649565b915061341b826133b6565b604082019050919050565b5f6020820190508181035f83015261343d81613404565b9050919050565b5f6040820190506134575f830185612e7b565b61346460208301846127f8565b9392505050565b7f4172726179206c656e677468206d69736d6174636800000000000000000000005f82015250565b5f61349f601583612649565b91506134aa8261346b565b602082019050919050565b5f6020820190508181035f8301526134cc81613493565b9050919050565b5f6134dd82612754565b91506134e883612754565b9250828201905080821115613500576134ff61328d565b5b92915050565b7f45786365656473206d6178696d756d206d696e7420616d6f756e7400000000005f82015250565b5f61353a601b83612649565b915061354582613506565b602082019050919050565b5f6020820190508181035f8301526135678161352e565b9050919050565b7f546f74616c20737570706c79206578636565647320746865206d6178696d756d5f8201527f2063617000000000000000000000000000000000000000000000000000000000602082015250565b5f6135c8602483612649565b91506135d38261356e565b604082019050919050565b5f6020820190508181035f8301526135f5816135bc565b9050919050565b5f60608201905061360f5f830186612e7b565b61361c60208301856127f8565b61362960408301846127f8565b94935050505056fea2646970667358221220df33ebfb2f21ec58565439598cf097b707bd55658c036f5716b4b840894c12ed64736f6c63430008140033608060405234801562000010575f80fd5b50604051620013d9380380620013d98339818101604052810190620000369190620001bd565b81620000495f826200005a60201b60201c565b505080600681905550505062000202565b5f62000087835f018373ffffffffffffffffffffffffffffffffffffffff165f1b6200008f60201b60201c565b905092915050565b5f620000a283836200010060201b60201c565b620000f657825f0182908060018154018082558091505060019003905f5260205f20015f9091909190915055825f0180549050836001015f8481526020019081526020015f208190555060019050620000fa565b5f90505b92915050565b5f80836001015f8481526020019081526020015f20541415905092915050565b5f80fd5b5f73ffffffffffffffffffffffffffffffffffffffff82169050919050565b5f6200014f8262000124565b9050919050565b620001618162000143565b81146200016c575f80fd5b50565b5f815190506200017f8162000156565b92915050565b5f819050919050565b620001998162000185565b8114620001a4575f80fd5b50565b5f81519050620001b7816200018e565b92915050565b5f8060408385031215620001d657620001d562000120565b5b5f620001e5858286016200016f565b9250506020620001f885828601620001a7565b9150509250929050565b6111c980620002105f395ff3fe608060405234801561000f575f80fd5b50600436106100b2575f3560e01c806363b266ba1161006f57806363b266ba1461018c5780636ef0d855146101bc5780636f5fbcbf146101ed578063956e8fac1461021d578063ee5277ca14610239578063f7cd726914610255576100b2565b80631e7269c5146100b657806324c2be0e146100e657806324d7806c1461010257806331ae450b14610132578063545dcac31461015057806356bda4a21461016e575b5f80fd5b6100d060048036038101906100cb9190610b1b565b610285565b6040516100dd9190610b5e565b60405180910390f35b61010060048036038101906100fb9190610baa565b61029a565b005b61011c60048036038101906101179190610b1b565b61042d565b6040516101299190610c14565b60405180910390f35b61013a61043f565b6040516101479190610ce4565b60405180910390f35b61015861044f565b6040516101659190610b5e565b60405180910390f35b610176610455565b6040516101839190610b5e565b60405180910390f35b6101a660048036038101906101a19190610b1b565b61045e565b6040516101b39190610b5e565b60405180910390f35b6101d660048036038101906101d19190610b1b565b6104a6565b6040516101e4929190610d04565b60405180910390f35b61020760048036038101906102029190610d2b565b6104c6565b6040516102149190610c14565b60405180910390f35b61023760048036038101906102329190610baa565b61059f565b005b610253600480360381019061024e9190610d93565b6106e7565b005b61026f600480360381019061026a9190610dd1565b6107d2565b60405161027c9190610c14565b60405180910390f35b6005602052805f5260405f205f915090505481565b6102a38161042d565b6102e2576040517f08c379a00000000000000000000000000000000000000000000000000000000081526004016102d990610e56565b60405180910390fd5b60016102ed5f6107e0565b1161032d576040517f08c379a000000000000000000000000000000000000000000000000000000000815260040161032490610ebe565b60405180910390fd5b61034760035f8581526020019081526020015f20826107f3565b505f6103525f6107e0565b90505f61036e60035f8781526020019081526020015f206107e0565b90505f60028361037e9190610f36565b821190508373ffffffffffffffffffffffffffffffffffffffff168573ffffffffffffffffffffffffffffffffffffffff167fef24fa01fe05a254ede9c78fbf249d647f89ea96152511b4f4be62f2e280469c8585856040516103e393929190610f66565b60405180910390a380156104255760035f8781526020019081526020015f205f8082015f8082015f6104159190610a84565b505050506104235f86610820565b505b505050505050565b5f6104385f8361084d565b9050919050565b606061044a5f61087a565b905090565b60065481565b5f600654905090565b5f60075f8373ffffffffffffffffffffffffffffffffffffffff1673ffffffffffffffffffffffffffffffffffffffff1681526020019081526020015f205f01549050919050565b6007602052805f5260405f205f91509050805f0154908060010154905082565b5f6104d08261042d565b61050f576040517f08c379a000000000000000000000000000000000000000000000000000000000815260040161050690610fe5565b60405180910390fd5b61052960045f8581526020019081526020015f20836107f3565b505f60026105365f6107e0565b6105409190610f36565b61055960045f8781526020019081526020015f206107e0565b11905080156105945760045f8581526020019081526020015f205f8082015f8082015f6105869190610a84565b505050506001915050610599565b5f9150505b92915050565b6105a88161042d565b6105e7576040517f08c379a00000000000000000000000000000000000000000000000000000000081526004016105de9061104d565b60405180910390fd5b61060160025f8581526020019081526020015f20826107f3565b505f61060c5f6107e0565b90505f61062860025f8781526020019081526020015f206107e0565b90505f6002836106389190610f36565b821190508373ffffffffffffffffffffffffffffffffffffffff168573ffffffffffffffffffffffffffffffffffffffff167f425d62a068a9ea6445218c290d76a4a15d47ab8ff579a3f5548f68b432ec662085858560405161069d93929190610f66565b60405180910390a380156106df5760025f8781526020019081526020015f205f8082015f8082015f6106cf9190610a84565b505050506106dd5f866107f3565b505b505050505050565b5f60075f8473ffffffffffffffffffffffffffffffffffffffff1673ffffffffffffffffffffffffffffffffffffffff1681526020019081526020015f20905062015180816001015461073a9190610f36565b62015180426107499190610f36565b1115610758575f815f01819055505b60065482825f015461076a919061106b565b11156107ab576040517f08c379a00000000000000000000000000000000000000000000000000000000081526004016107a2906110e8565b60405180910390fd5b81815f015f8282546107bd919061106b565b92505081905550428160010181905550505050565b5f6006548211159050919050565b5f6107ec825f01610899565b9050919050565b5f610818835f018373ffffffffffffffffffffffffffffffffffffffff165f1b6108a8565b905092915050565b5f610845835f018373ffffffffffffffffffffffffffffffffffffffff165f1b61090f565b905092915050565b5f610872835f018373ffffffffffffffffffffffffffffffffffffffff165f1b610a0b565b905092915050565b60605f610888835f01610a2b565b905060608190508092505050919050565b5f815f01805490509050919050565b5f6108b38383610a0b565b61090557825f0182908060018154018082558091505060019003905f5260205f20015f9091909190915055825f0180549050836001015f8481526020019081526020015f208190555060019050610909565b5f90505b92915050565b5f80836001015f8481526020019081526020015f205490505f8114610a00575f60018261093c9190611106565b90505f6001865f01805490506109529190611106565b90508082146109b8575f865f01828154811061097157610970611139565b5b905f5260205f200154905080875f01848154811061099257610991611139565b5b905f5260205f20018190555083876001015f8381526020019081526020015f2081905550505b855f018054806109cb576109ca611166565b5b600190038181905f5260205f20015f90559055856001015f8681526020019081526020015f205f905560019350505050610a05565b5f9150505b92915050565b5f80836001015f8481526020019081526020015f20541415905092915050565b6060815f01805480602002602001604051908101604052809291908181526020018280548015610a7857602002820191905f5260205f20905b815481526020019060010190808311610a64575b50505050509050919050565b5080545f8255905f5260205f2090810190610a9f9190610aa2565b50565b5b80821115610ab9575f815f905550600101610aa3565b5090565b5f80fd5b5f73ffffffffffffffffffffffffffffffffffffffff82169050919050565b5f610aea82610ac1565b9050919050565b610afa81610ae0565b8114610b04575f80fd5b50565b5f81359050610b1581610af1565b92915050565b5f60208284031215610b3057610b2f610abd565b5b5f610b3d84828501610b07565b91505092915050565b5f819050919050565b610b5881610b46565b82525050565b5f602082019050610b715f830184610b4f565b92915050565b5f819050919050565b610b8981610b77565b8114610b93575f80fd5b50565b5f81359050610ba481610b80565b92915050565b5f805f60608486031215610bc157610bc0610abd565b5b5f610bce86828701610b96565b9350506020610bdf86828701610b07565b9250506040610bf086828701610b07565b9150509250925092565b5f8115159050919050565b610c0e81610bfa565b82525050565b5f602082019050610c275f830184610c05565b92915050565b5f81519050919050565b5f82825260208201905092915050565b5f819050602082019050919050565b610c5f81610ae0565b82525050565b5f610c708383610c56565b60208301905092915050565b5f602082019050919050565b5f610c9282610c2d565b610c9c8185610c37565b9350610ca783610c47565b805f5b83811015610cd7578151610cbe8882610c65565b9750610cc983610c7c565b925050600181019050610caa565b5085935050505092915050565b5f6020820190508181035f830152610cfc8184610c88565b905092915050565b5f604082019050610d175f830185610b4f565b610d246020830184610b4f565b9392505050565b5f8060408385031215610d4157610d40610abd565b5b5f610d4e85828601610b96565b9250506020610d5f85828601610b07565b9150509250929050565b610d7281610b46565b8114610d7c575f80fd5b50565b5f81359050610d8d81610d69565b92915050565b5f8060408385031215610da957610da8610abd565b5b5f610db685828601610b07565b9250506020610dc785828601610d7f565b9150509250929050565b5f60208284031215610de657610de5610abd565b5b5f610df384828501610d7f565b91505092915050565b5f82825260208201905092915050565b7f4f6e6c792061646d696e732063616e2072656d6f7665000000000000000000005f82015250565b5f610e40601683610dfc565b9150610e4b82610e0c565b602082019050919050565b5f6020820190508181035f830152610e6d81610e34565b9050919050565b7f43616e6e6f742072656d6f766520746865206c6173742061646d696e000000005f82015250565b5f610ea8601c83610dfc565b9150610eb382610e74565b602082019050919050565b5f6020820190508181035f830152610ed581610e9c565b9050919050565b7f4e487b71000000000000000000000000000000000000000000000000000000005f52601260045260245ffd5b7f4e487b71000000000000000000000000000000000000000000000000000000005f52601160045260245ffd5b5f610f4082610b46565b9150610f4b83610b46565b925082610f5b57610f5a610edc565b5b828204905092915050565b5f606082019050610f795f830186610b4f565b610f866020830185610b4f565b610f936040830184610c05565b949350505050565b7f4f6e6c79206d696e742061646d696e732063616e207369676e000000000000005f82015250565b5f610fcf601983610dfc565b9150610fda82610f9b565b602082019050919050565b5f6020820190508181035f830152610ffc81610fc3565b9050919050565b7f4f6e6c792061646d696e732063616e207369676e0000000000000000000000005f82015250565b5f611037601483610dfc565b915061104282611003565b602082019050919050565b5f6020820190508181035f8301526110648161102b565b9050919050565b5f61107582610b46565b915061108083610b46565b925082820190508082111561109857611097610f09565b5b92915050565b7f4d696e7420616d6f756e74206578636565647320746865206c696d69740000005f82015250565b5f6110d2601d83610dfc565b91506110dd8261109e565b602082019050919050565b5f6020820190508181035f8301526110ff816110c6565b9050919050565b5f61111082610b46565b915061111b83610b46565b925082820390508181111561113357611132610f09565b5b92915050565b7f4e487b71000000000000000000000000000000000000000000000000000000005f52603260045260245ffd5b7f4e487b71000000000000000000000000000000000000000000000000000000005f52603160045260245ffdfea2646970667358221220fbf8fd836e6c4315342499c18f3e35ec651e1e4f8ede522ce0c9bf668e95c70e64736f6c63430008140033608060405234801562000010575f80fd5b5060405162001438380380620014388339818101604052810190620000369190620001bd565b81620000495f826200005a60201b60201c565b505080600481905550505062000202565b5f62000087835f018373ffffffffffffffffffffffffffffffffffffffff165f1b6200008f60201b60201c565b905092915050565b5f620000a283836200010060201b60201c565b620000f657825f0182908060018154018082558091505060019003905f5260205f20015f9091909190915055825f0180549050836001015f8481526020019081526020015f208190555060019050620000fa565b5f90505b92915050565b5f80836001015f8481526020019081526020015f20541415905092915050565b5f80fd5b5f73ffffffffffffffffffffffffffffffffffffffff82169050919050565b5f6200014f8262000124565b9050919050565b620001618162000143565b81146200016c575f80fd5b50565b5f815190506200017f8162000156565b92915050565b5f819050919050565b620001998162000185565b8114620001a4575f80fd5b50565b5f81519050620001b7816200018e565b92915050565b5f8060408385031215620001d657620001d562000120565b5b5f620001e5858286016200016f565b9250506020620001f885828601620001a7565b9150509250929050565b61122880620002105f395ff3fe608060405234801561000f575f80fd5b5060043610610091575f3560e01c806354b4fdfd1161006457806354b4fdfd1461011b5780635ddbe56d146101375780635edf9e6114610155578063685026a914610185578063956e8fac146101b557610091565b806324c2be0e1461009557806324d7806c146100b157806331ae450b146100e1578063537ca041146100ff575b5f80fd5b6100af60048036038101906100aa9190610b70565b6101d1565b005b6100cb60048036038101906100c69190610bc0565b610364565b6040516100d89190610c05565b60405180910390f35b6100e9610376565b6040516100f69190610cd5565b60405180910390f35b61011960048036038101906101149190610d28565b610386565b005b61013560048036038101906101309190610d8c565b6104e1565b005b61013f6105d7565b60405161014c9190610dd9565b60405180910390f35b61016f600480360381019061016a9190610bc0565b6105dd565b60405161017c9190610dd9565b60405180910390f35b61019f600480360381019061019a9190610bc0565b610672565b6040516101ac9190610dd9565b60405180910390f35b6101cf60048036038101906101ca9190610b70565b6106ba565b005b6101da81610364565b610219576040517f08c379a000000000000000000000000000000000000000000000000000000000815260040161021090610e4c565b60405180910390fd5b60016102245f610802565b11610264576040517f08c379a000000000000000000000000000000000000000000000000000000000815260040161025b90610eb4565b60405180910390fd5b61027e60035f8581526020019081526020015f2082610815565b505f6102895f610802565b90505f6102a560035f8781526020019081526020015f20610802565b90505f6002836102b59190610f2c565b821190508373ffffffffffffffffffffffffffffffffffffffff168573ffffffffffffffffffffffffffffffffffffffff167fef24fa01fe05a254ede9c78fbf249d647f89ea96152511b4f4be62f2e280469c85858560405161031a93929190610f5c565b60405180910390a3801561035c5760035f8781526020019081526020015f205f8082015f8082015f61034c9190610aa6565b5050505061035a5f86610842565b505b505050505050565b5f61036f5f8361086f565b9050919050565b60606103815f61089c565b905090565b61038f81610364565b6103ce576040517f08c379a00000000000000000000000000000000000000000000000000000000081526004016103c590610fdb565b60405180910390fd5b6103e860055f8681526020019081526020015f2082610815565b505f6103f35f610802565b90505f61040f60055f8881526020019081526020015f20610802565b90505f60028361041f9190610f2c565b821190508373ffffffffffffffffffffffffffffffffffffffff168673ffffffffffffffffffffffffffffffffffffffff16887f7dda47cfc180dffead1d3e24ead3f174a40d13cc7efead5ce81ab38204eb1808888787876040516104879493929190610ff9565b60405180910390a480156104d8578460065f8873ffffffffffffffffffffffffffffffffffffffff1673ffffffffffffffffffffffffffffffffffffffff1681526020019081526020015f20819055505b50505050505050565b5f60075f8473ffffffffffffffffffffffffffffffffffffffff1673ffffffffffffffffffffffffffffffffffffffff1681526020019081526020015f2090506201518081600101546105349190610f2c565b62015180426105439190610f2c565b1115610552575f815f01819055505b5f61055c846105dd565b90508083835f015461056e919061103c565b11156105af576040517f08c379a00000000000000000000000000000000000000000000000000000000081526004016105a6906110df565b60405180910390fd5b82825f015f8282546105c1919061103c565b9250508190555042826001018190555050505050565b60045481565b5f8060065f8473ffffffffffffffffffffffffffffffffffffffff1673ffffffffffffffffffffffffffffffffffffffff1681526020019081526020015f20540361062c57600454905061066d565b60065f8373ffffffffffffffffffffffffffffffffffffffff1673ffffffffffffffffffffffffffffffffffffffff1681526020019081526020015f205490505b919050565b5f60075f8373ffffffffffffffffffffffffffffffffffffffff1673ffffffffffffffffffffffffffffffffffffffff1681526020019081526020015f205f01549050919050565b6106c381610364565b610702576040517f08c379a00000000000000000000000000000000000000000000000000000000081526004016106f990611147565b60405180910390fd5b61071c60025f8581526020019081526020015f2082610815565b505f6107275f610802565b90505f61074360025f8781526020019081526020015f20610802565b90505f6002836107539190610f2c565b821190508373ffffffffffffffffffffffffffffffffffffffff168573ffffffffffffffffffffffffffffffffffffffff167f425d62a068a9ea6445218c290d76a4a15d47ab8ff579a3f5548f68b432ec66208585856040516107b893929190610f5c565b60405180910390a380156107fa5760025f8781526020019081526020015f205f8082015f8082015f6107ea9190610aa6565b505050506107f85f86610815565b505b505050505050565b5f61080e825f016108bb565b9050919050565b5f61083a835f018373ffffffffffffffffffffffffffffffffffffffff165f1b6108ca565b905092915050565b5f610867835f018373ffffffffffffffffffffffffffffffffffffffff165f1b610931565b905092915050565b5f610894835f018373ffffffffffffffffffffffffffffffffffffffff165f1b610a2d565b905092915050565b60605f6108aa835f01610a4d565b905060608190508092505050919050565b5f815f01805490509050919050565b5f6108d58383610a2d565b61092757825f0182908060018154018082558091505060019003905f5260205f20015f9091909190915055825f0180549050836001015f8481526020019081526020015f20819055506001905061092b565b5f90505b92915050565b5f80836001015f8481526020019081526020015f205490505f8114610a22575f60018261095e9190611165565b90505f6001865f01805490506109749190611165565b90508082146109da575f865f01828154811061099357610992611198565b5b905f5260205f200154905080875f0184815481106109b4576109b3611198565b5b905f5260205f20018190555083876001015f8381526020019081526020015f2081905550505b855f018054806109ed576109ec6111c5565b5b600190038181905f5260205f20015f90559055856001015f8681526020019081526020015f205f905560019350505050610a27565b5f9150505b92915050565b5f80836001015f8481526020019081526020015f20541415905092915050565b6060815f01805480602002602001604051908101604052809291908181526020018280548015610a9a57602002820191905f5260205f20905b815481526020019060010190808311610a86575b50505050509050919050565b5080545f8255905f5260205f2090810190610ac19190610ac4565b50565b5b80821115610adb575f815f905550600101610ac5565b5090565b5f80fd5b5f819050919050565b610af581610ae3565b8114610aff575f80fd5b50565b5f81359050610b1081610aec565b92915050565b5f73ffffffffffffffffffffffffffffffffffffffff82169050919050565b5f610b3f82610b16565b9050919050565b610b4f81610b35565b8114610b59575f80fd5b50565b5f81359050610b6a81610b46565b92915050565b5f805f60608486031215610b8757610b86610adf565b5b5f610b9486828701610b02565b9350506020610ba586828701610b5c565b9250506040610bb686828701610b5c565b9150509250925092565b5f60208284031215610bd557610bd4610adf565b5b5f610be284828501610b5c565b91505092915050565b5f8115159050919050565b610bff81610beb565b82525050565b5f602082019050610c185f830184610bf6565b92915050565b5f81519050919050565b5f82825260208201905092915050565b5f819050602082019050919050565b610c5081610b35565b82525050565b5f610c618383610c47565b60208301905092915050565b5f602082019050919050565b5f610c8382610c1e565b610c8d8185610c28565b9350610c9883610c38565b805f5b83811015610cc8578151610caf8882610c56565b9750610cba83610c6d565b925050600181019050610c9b565b5085935050505092915050565b5f6020820190508181035f830152610ced8184610c79565b905092915050565b5f819050919050565b610d0781610cf5565b8114610d11575f80fd5b50565b5f81359050610d2281610cfe565b92915050565b5f805f8060808587031215610d4057610d3f610adf565b5b5f610d4d87828801610b02565b9450506020610d5e87828801610b5c565b9350506040610d6f87828801610d14565b9250506060610d8087828801610b5c565b91505092959194509250565b5f8060408385031215610da257610da1610adf565b5b5f610daf85828601610b5c565b9250506020610dc085828601610d14565b9150509250929050565b610dd381610cf5565b82525050565b5f602082019050610dec5f830184610dca565b92915050565b5f82825260208201905092915050565b7f4f6e6c792061646d696e732063616e2072656d6f7665000000000000000000005f82015250565b5f610e36601683610df2565b9150610e4182610e02565b602082019050919050565b5f6020820190508181035f830152610e6381610e2a565b9050919050565b7f43616e6e6f742072656d6f766520746865206c6173742061646d696e000000005f82015250565b5f610e9e601c83610df2565b9150610ea982610e6a565b602082019050919050565b5f6020820190508181035f830152610ecb81610e92565b9050919050565b7f4e487b71000000000000000000000000000000000000000000000000000000005f52601260045260245ffd5b7f4e487b71000000000000000000000000000000000000000000000000000000005f52601160045260245ffd5b5f610f3682610cf5565b9150610f4183610cf5565b925082610f5157610f50610ed2565b5b828204905092915050565b5f606082019050610f6f5f830186610dca565b610f7c6020830185610dca565b610f896040830184610bf6565b949350505050565b7f4f6e6c79207265737472696374696f6e2061646d696e732063616e207369676e5f82015250565b5f610fc5602083610df2565b9150610fd082610f91565b602082019050919050565b5f6020820190508181035f830152610ff281610fb9565b9050919050565b5f60808201905061100c5f830187610dca565b6110196020830186610dca565b6110266040830185610dca565b6110336060830184610bf6565b95945050505050565b5f61104682610cf5565b915061105183610cf5565b925082820190508082111561106957611068610eff565b5b92915050565b7f5472616e7366657220616d6f756e74206578636565647320746865206c696d695f8201527f7400000000000000000000000000000000000000000000000000000000000000602082015250565b5f6110c9602183610df2565b91506110d48261106f565b604082019050919050565b5f6020820190508181035f8301526110f6816110bd565b9050919050565b7f4f6e6c792061646d696e732063616e207369676e0000000000000000000000005f82015250565b5f611131601483610df2565b915061113c826110fd565b602082019050919050565b5f6020820190508181035f83015261115e81611125565b9050919050565b5f61116f82610cf5565b915061117a83610cf5565b925082820390508181111561119257611191610eff565b5b92915050565b7f4e487b71000000000000000000000000000000000000000000000000000000005f52603260045260245ffd5b7f4e487b71000000000000000000000000000000000000000000000000000000005f52603160045260245ffdfea264697066735822122011f6067a53e93d11a35fc225c24158cd348ba2e11653ee8164239948da3e03b564736f6c63430008140033",
  "immutableReferences": {
    "1117": [
      {
        "length": 32,
        "start": 1968
      }
    ]
  },
  "source": "// SPDX-License-Identifier: MIT\npragma solidity 0.8.20;\n\n\nimport \"@openzeppelin/contracts/token/ERC20/ERC20.sol\";\nimport \"@openzeppelin/contracts/token/ERC20/extensions/ERC20Capped.sol\";\nimport \"@openzeppelin/contracts/access/AccessControl.sol\";\nimport \"@openzeppelin/contracts/utils/structs/EnumerableMap.sol\";\nimport \"@openzeppelin/contracts/utils/structs/EnumerableSet.sol\";\n\ncontract Admin {\n    // Variables\n    EnumerableSet.AddressSet internal admins;\n    mapping(bytes32 => EnumerableSet.AddressSet) internal addAdminSignatures;\n    mapping(bytes32 => EnumerableSet.AddressSet) internal removeAdminSignatures;\n\n    // Constructor\n    constructor(address firstAdmin) {\n        EnumerableSet.add(admins, firstAdmin);\n    }\n\n    // Events\n    event SingAddAdmin(\n        address indexed newAdmin,\n        address indexed signer,\n        uint256 adminCount,\n        uint256 signatureCount,\n        bool isApproved\n    );\n    event SingRemoveAdmin(\n        address indexed removedAdmin,\n        address indexed signer,\n        uint256 adminCount,\n        uint256 signatureCount,\n        bool isApproved\n    );\n\n    // Functions\n    function signAddAdmin(bytes32 adminHash, address newAdmin, address signer) public {\n        require(isAdmin(signer), \"Only admins can sign\");\n        EnumerableSet.add(addAdminSignatures[adminHash], signer);\n        uint256 adminCount = EnumerableSet.length(admins);\n        uint256 signatureCount = EnumerableSet.length(addAdminSignatures[adminHash]);\n        bool isApproved = signatureCount > (adminCount / 2);\n        emit SingAddAdmin(\n            newAdmin,\n            signer,\n            adminCount,\n            signatureCount,\n            isApproved\n        );\n        if (isApproved) {\n            delete addAdminSignatures[adminHash]; // clear the signatures\n            EnumerableSet.add(admins, newAdmin);\n        }\n    }\n\n    function signRemoveAdmin(bytes32 adminHash, address newAdmin, address signer) public {\n        require(isAdmin(signer), \"Only admins can remove\");\n        require(EnumerableSet.length(admins) > 1, \"Cannot remove the last admin\");\n        EnumerableSet.add(removeAdminSignatures[adminHash], signer);\n        uint256 adminCount = EnumerableSet.length(admins);\n        uint256 signatureCount = EnumerableSet.length(removeAdminSignatures[adminHash]);\n        bool isApproved = signatureCount > (adminCount / 2);\n        emit SingRemoveAdmin(\n            newAdmin,\n            signer,\n            adminCount,\n            signatureCount,\n            isApproved\n        );\n        if (isApproved) {\n            delete removeAdminSignatures[adminHash]; // clear the signatures\n            EnumerableSet.remove(admins, newAdmin);\n        }\n    }\n\n    function isAdmin(address account) public view returns (bool) {\n        return EnumerableSet.contains(admins, account);\n    }\n\n    function getAdmins() public view returns (address[] memory) {\n        return EnumerableSet.values(admins);\n    }\n}\n\ncontract AdminMint is Admin {\n    // Variables\n    mapping(bytes32 => EnumerableSet.AddressSet) internal mintSignatures;\n    mapping(address => uint) public minted;\n    uint public TMAX;\n    mapping(address => MintedAmount) public mintedAmounts;\n\n    // Constructor\n    constructor(address firstAdmin, uint _tmax) Admin(firstAdmin) {\n        TMAX = _tmax;\n    }\n\n    struct MintedAmount {\n        uint256 amount;\n        uint256 lastUpdated;\n    }\n\n    function getMintLimit() public view returns (uint256) {\n        return TMAX;\n    }\n\n    function getMintedAmount(address account) public view returns (uint256) {\n        return mintedAmounts[account].amount;\n    }\n\n    // Functions\n    function isConsensus(bytes32 mintHash, address signer) public returns (bool) {\n        require(isAdmin(signer), \"Only mint admins can sign\");\n        EnumerableSet.add(mintSignatures[mintHash], signer);\n        bool isMintApproved = EnumerableSet.length(mintSignatures[mintHash]) > (EnumerableSet.length(admins) / 2);\n        if (isMintApproved) {\n            delete mintSignatures[mintHash]; // clear the signatures\n            return true;\n        } else {\n            return false;\n        }\n    }\n\n    function checkTMAX(uint256 mintAmount) public view returns (bool) {\n        return mintAmount <= TMAX;\n    }\n\n    function newMint(address account, uint256 amount) public {\n        MintedAmount storage data = mintedAmounts[account];\n\n        // reset the amount if a new day has started\n        if (block.timestamp / 86400 > data.lastUpdated / 86400) {\n            data.amount = 0;\n        }\n\n        // check if the transfer amount not exceeds the limit\n        require(data.amount + amount <= TMAX, \"Mint amount exceeds the limit\");\n\n        data.amount += amount;\n        data.lastUpdated = block.timestamp;\n    }\n}\n\ncontract AdminRestriction is Admin {\n    // Variables\n    uint public defaultTransferLimit;\n    mapping(bytes32 => EnumerableSet.AddressSet) private transferLimitProposals;\n    mapping(address => uint256) private userTransferLimits;\n    mapping(address => TransferedAmount) private transferedAmounts;\n\n    // Constructor\n    constructor(address firstAdmin, uint256 _transferLimit) Admin(firstAdmin) {\n        defaultTransferLimit = _transferLimit;\n    }\n\n    // Structs\n    struct TransferedAmount {\n        uint256 amount;\n        uint256 lastUpdated;\n    }\n\n    event SignTransferLimit(\n        bytes32 indexed transferHash,\n        address indexed account,\n        uint256 newLimit,\n        address indexed signer,\n        uint256 adminCount,\n        uint256 signatureCount,\n        bool isApproved\n    );\n\n    // Functions\n    function getTransferAmounts(address account) public view returns (uint256) {\n        return transferedAmounts[account].amount;\n    }\n\n    function getTransferLimit(address account) public view returns (uint256) {\n        if (userTransferLimits[account] == 0) {\n            return defaultTransferLimit;\n        } else {\n            return userTransferLimits[account];\n        }\n    }\n\n\n    function signTransferLimit(bytes32 transferHash, address account, uint256 _newLimit, address signer) public {\n        require(isAdmin(signer), \"Only restriction admins can sign\");\n        EnumerableSet.add(transferLimitProposals[transferHash], signer);\n        uint256 adminCount = EnumerableSet.length(admins);\n        uint256 signatureCount = EnumerableSet.length(transferLimitProposals[transferHash]);\n        bool isApproved = signatureCount > (adminCount / 2);\n        emit SignTransferLimit(\n            transferHash,\n            account,\n            _newLimit,\n            signer,\n            adminCount,\n            signatureCount,\n            isApproved\n        );\n        if (isApproved) {\n            userTransferLimits[account] = _newLimit;\n        }\n    }\n\n    function newTransfer(address account, uint256 amount) public {\n        TransferedAmount storage data = transferedAmounts[account];\n\n        // reset the amount if a new day has started\n        if (block.timestamp / 86400 > data.lastUpdated / 86400) {\n            data.amount = 0;\n        }\n\n        // check if the transfer amount not exceeds the limit\n        uint256 userLimit = getTransferLimit(account);\n        require(data.amount + amount <= userLimit, \"Transfer amount exceeds the limit\");\n\n        data.amount += amount;\n        data.lastUpdated = block.timestamp;\n    }\n}\n\ncontract BDAToken is ERC20Capped {\n    // Variables\n    AdminMint public adminMint;\n    AdminRestriction public adminRestriction;\n    uint256 transferLimit;\n\n    // Constructor\n    constructor(string memory name, string memory symbol, uint256 tmax, uint256 _cap, uint256 _transferLimit) ERC20(name, symbol) ERC20Capped(_cap) {\n        adminMint = new AdminMint(msg.sender, tmax);\n        adminRestriction = new AdminRestriction(msg.sender, _transferLimit);\n    }\n\n    // Modifiers\n    modifier onlyMintAdmin {\n        require(adminMint.isAdmin(msg.sender), \"Caller is not a mint admin\");\n        _;\n    }\n\n    modifier onlyRestrictionAdmin {\n        require(adminRestriction.isAdmin(msg.sender), \"Caller is not a restriction admin\");\n        _;\n    }\n\n    // Events\n    event Mint(address indexed to, uint256 amount);\n    event SignAddingAdminMint(address indexed account, address indexed signer);\n    event SignRemovingAdminMint(address indexed account, address indexed signer);\n    event TransferBDAToken(address indexed from, address indexed to, uint256 amount, uint256 limit);\n\n    // Functions\n    function getAdminMint() public view returns (address[] memory) {\n        return adminMint.getAdmins();\n    }\n\n    function getAdminRestriction() public view returns (address[] memory) {\n        return adminRestriction.getAdmins();\n    }\n\n    function getTransferLimit(address account) public view returns (uint256) {\n        return adminRestriction.getTransferLimit(account);\n    }\n\n    function mint(address[] memory to, uint256[] memory amount) public onlyMintAdmin {\n        require(to.length == amount.length, \"Array length mismatch\");\n        require(adminMint.isAdmin(msg.sender), \"Caller is not a mint admin\");\n\n        // Check cap\n        uint256 amountMint = 0;\n        for (uint256 i = 0; i < to.length; i++) {\n            amountMint += amount[i];\n\n            // Check TMAX\n            require(adminMint.checkTMAX(amount[i]), \"Exceeds maximum mint amount\");\n        }\n        require(totalSupply() + amountMint <= cap(), \"Total supply exceeds the maximum cap\");\n\n        for (uint256 i = 0; i < to.length; i++) {\n            adminMint.newMint(to[i], amount[i]);\n            _mint(to[i], amount[i]);\n        }\n    }\n\n    function burnAccount() public {\n        uint balance = balanceOf(msg.sender);\n        if (balance == 0) {\n            return;\n        }\n        _burn(msg.sender, balance);\n    }\n\n    function transfer(address to, uint256 amount) public override returns (bool){\n        uint256 limit = adminRestriction.getTransferLimit(msg.sender);\n        emit TransferBDAToken(msg.sender, to, amount, limit);\n        require(to != address(0), \"ERC20: transfer to the zero address\");\n\n        // check if the transfer amount not exceeds the limit\n        adminRestriction.newTransfer(msg.sender, amount);\n\n        _transfer(msg.sender, to, amount);\n        return true;\n    }\n\n    /**\n     * @dev Function to approve minting of more than mintMax tokens need consensus from more than half of the mint admins\n     * @param accounts The addresses that will receive the minted tokens\n     * @param amounts The amounts of tokens that will be minted\n     */\n    function signMint(address[] memory accounts, uint256[] memory amounts) public onlyMintAdmin {\n        bytes32 mintHash = keccak256(abi.encodePacked(accounts, amounts));\n        if (adminMint.isConsensus(mintHash, msg.sender)) {\n            for (uint256 i = 0; i < accounts.length; i++) {\n                _mint(accounts[i], amounts[i]);\n            }\n        }\n    }\n\n    function signAddAdminMint(address account) public onlyMintAdmin {\n        bytes32 mintHash = keccak256(abi.encodePacked(account));\n        adminMint.signAddAdmin(mintHash, account, msg.sender);\n        emit SignAddingAdminMint(account, msg.sender);\n    }\n\n    function signRemoveAdminMint(address account) public onlyMintAdmin {\n        bytes32 mintHash = keccak256(abi.encodePacked(account));\n        adminMint.signRemoveAdmin(mintHash, account, msg.sender);\n        emit SignRemovingAdminMint(account, msg.sender);\n    }\n\n    function signAddAdminRestriction(address account) public onlyRestrictionAdmin {\n        bytes32 adminHash = keccak256(abi.encodePacked(account));\n        adminRestriction.signAddAdmin(adminHash, account, msg.sender);\n    }\n\n    function signRemoveAdminRestriction(address account) public onlyRestrictionAdmin {\n        bytes32 adminHash = keccak256(abi.encodePacked(account));\n        adminRestriction.signRemoveAdmin(adminHash, account, msg.sender);\n    }\n\n    function signUpdateTransferLimit(address account, uint256 _newLimit) public onlyRestrictionAdmin {\n        bytes32 transferHash = keccak256(abi.encodePacked(account, _newLimit));\n        adminRestriction.signTransferLimit(transferHash, account, _newLimit, msg.sender);\n    }\n\n    function getUserRoles() public view returns (bool isAdminMint, bool isAdminRestriction) {\n        address account = msg.sender;\n        return (adminMint.isAdmin(account), adminRestriction.isAdmin(account));\n    }\n\n    function getMintedToday() public view returns (uint256) {\n        address account = msg.sender;\n        return adminMint.getMintedAmount(account);\n    }\n\n    function getMintLimit() public view returns (uint256) {\n        return adminMint.getMintLimit();\n    }\n\n    function getTransferedToday() public view returns (uint256) {\n        address account = msg.sender;\n        return adminRestriction.getTransferAmounts(account);\n    }\n\n    function getTransferLimit() public view returns (uint256) {\n        address account = msg.sender;\n        return adminRestriction.getTransferLimit(account);\n    }\n}",
  "sourcePath": "/app/contracts/BDAToken.sol",
  "compiler": {
    "name": "solc",
    "version": "0.8.20+commit.a1b79de6.Emscripten.clang"
  },
  "schemaVersion": "3.4.16",
  "updatedAt": "2024-04-29T23:01:45.133Z",
  "networkType": "ethereum",
  "devdoc": {
    "errors": {
      "ERC20ExceededCap(uint256,uint256)": [
        {
          "details": "Total supply cap has been exceeded."
        }
      ],
      "ERC20InsufficientAllowance(address,uint256,uint256)": [
        {
          "details": "Indicates a failure with the `spender`s `allowance`. Used in transfers.",
          "params": {
            "allowance": "Amount of tokens a `spender` is allowed to operate with.",
            "needed": "Minimum amount required to perform a transfer.",
            "spender": "Address that may be allowed to operate on tokens without being their owner."
          }
        }
      ],
      "ERC20InsufficientBalance(address,uint256,uint256)": [
        {
          "details": "Indicates an error related to the current `balance` of a `sender`. Used in transfers.",
          "params": {
            "balance": "Current balance for the interacting account.",
            "needed": "Minimum amount required to perform a transfer.",
            "sender": "Address whose tokens are being transferred."
          }
        }
      ],
      "ERC20InvalidApprover(address)": [
        {
          "details": "Indicates a failure with the `approver` of a token to be approved. Used in approvals.",
          "params": {
            "approver": "Address initiating an approval operation."
          }
        }
      ],
      "ERC20InvalidCap(uint256)": [
        {
          "details": "The supplied cap is not a valid cap."
        }
      ],
      "ERC20InvalidReceiver(address)": [
        {
          "details": "Indicates a failure with the token `receiver`. Used in transfers.",
          "params": {
            "receiver": "Address to which tokens are being transferred."
          }
        }
      ],
      "ERC20InvalidSender(address)": [
        {
          "details": "Indicates a failure with the token `sender`. Used in transfers.",
          "params": {
            "sender": "Address whose tokens are being transferred."
          }
        }
      ],
      "ERC20InvalidSpender(address)": [
        {
          "details": "Indicates a failure with the `spender` to be approved. Used in approvals.",
          "params": {
            "spender": "Address that may be allowed to operate on tokens without being their owner."
          }
        }
      ]
    },
    "events": {
      "Approval(address,address,uint256)": {
        "details": "Emitted when the allowance of a `spender` for an `owner` is set by a call to {approve}. `value` is the new allowance."
      },
      "Transfer(address,address,uint256)": {
        "details": "Emitted when `value` tokens are moved from one account (`from`) to another (`to`). Note that `value` may be zero."
      }
    },
    "kind": "dev",
    "methods": {
      "allowance(address,address)": {
        "details": "See {IERC20-allowance}."
      },
      "approve(address,uint256)": {
        "details": "See {IERC20-approve}. NOTE: If `value` is the maximum `uint256`, the allowance is not updated on `transferFrom`. This is semantically equivalent to an infinite approval. Requirements: - `spender` cannot be the zero address."
      },
      "balanceOf(address)": {
        "details": "See {IERC20-balanceOf}."
      },
      "cap()": {
        "details": "Returns the cap on the token's total supply."
      },
      "decimals()": {
        "details": "Returns the number of decimals used to get its user representation. For example, if `decimals` equals `2`, a balance of `505` tokens should be displayed to a user as `5.05` (`505 / 10 ** 2`). Tokens usually opt for a value of 18, imitating the relationship between Ether and Wei. This is the default value returned by this function, unless it's overridden. NOTE: This information is only used for _display_ purposes: it in no way affects any of the arithmetic of the contract, including {IERC20-balanceOf} and {IERC20-transfer}."
      },
      "name()": {
        "details": "Returns the name of the token."
      },
      "signMint(address[],uint256[])": {
        "details": "Function to approve minting of more than mintMax tokens need consensus from more than half of the mint admins",
        "params": {
          "accounts": "The addresses that will receive the minted tokens",
          "amounts": "The amounts of tokens that will be minted"
        }
      },
      "symbol()": {
        "details": "Returns the symbol of the token, usually a shorter version of the name."
      },
      "totalSupply()": {
        "details": "See {IERC20-totalSupply}."
      },
      "transferFrom(address,address,uint256)": {
        "details": "See {IERC20-transferFrom}. Emits an {Approval} event indicating the updated allowance. This is not required by the EIP. See the note at the beginning of {ERC20}. NOTE: Does not update the allowance if the current allowance is the maximum `uint256`. Requirements: - `from` and `to` cannot be the zero address. - `from` must have a balance of at least `value`. - the caller must have allowance for ``from``'s tokens of at least `value`."
      }
    },
    "version": 1
  },
  "userdoc": {
    "kind": "user",
    "methods": {},
    "version": 1
  }
}